:100000000C947E000C94A6000C94A6000C94A60000
:100010000C94A6000C94A6000C94A6000C94A600C8
:100020000C94A6000C94A6000C94A6000C947203E9
:100030000C94A6000C94A6000C94A6000C94A600A8
:100040000C9430050C94A6000C9466020C944002AB
:100050000C94A6000C94A6000C94A6000C94A60088
:100060000C94A6000C94A600810B840B860B8A0BC3
:100070008C0B8E0B910BA90BAC0BAE0BB20BB40B14
:10008000B60BB90BD80BDB0BDD0BE10BE30BE50B70
:10009000E80BFE0B010C030C070C090C0B0C0E0CEF
:1000A00000000000230026002900000000080002D4
:1000B0000100000304070000000000000000000031
:1000C0000000250028002B0000000000240027006D
:1000D0002A000404040404040404020202020202CA
:1000E00003030303030301020408102040800102FC
:1000F000040810200102040810203D0D11241FBE29
:10010000CFEFD8E0DEBFCDBF11E0A0E0B1E0E4E585
:10011000FDE102C005900D92A833B107D9F726E0A2
:10012000A8E3B1E001C01D92A33DB207E1F710E0E2
:10013000CEE7D0E004C02197FE010E94890ECD37A2
:10014000D107C9F70E947A050C94A80E0C94000000
:10015000CF92DF92EF92FF920F931F93CF93DF9393
:100160006C017A018B01C0E0D0E0CE15DF0581F093
:10017000D8016D918D01D601ED91FC910190F08136
:10018000E02DC6010995892B11F02196EECF7E0155
:10019000C701DF91CF911F910F91FF90EF90DF90FA
:1001A000CF900895089580E090E00895FC01538D6C
:1001B000448D252F30E0842F90E0821B930B541741
:1001C00010F0CF96089501970895FC01918D828DCE
:1001D000981761F0828DDF01A80FB11D5D968C919B
:1001E000928D9F5F9F73928F90E008958FEF9FEFA6
:1001F0000895FC01918D828D981731F0828DE80F62
:10020000F11D858D90E008958FEF9FEF0895FC011B
:10021000918D228D892F90E0805C9F4F821B9109E8
:100220008F739927089586E196E00E94070121E0E7
:10023000892B09F420E0822F0895FC01848DDF01D1
:10024000A80FB11DA35ABF4F2C91848D90E0019649
:100250008F739927848FA689B7892C93A089B18938
:100260008C91837080648C93938D848D981306C0D9
:100270000288F389E02D80818F7D80830895EF923D
:10028000FF920F931F93CF93DF93EC0181E0888F50
:100290009B8D8C8D981305C0E889F989808185FD37
:1002A00026C0F62E0B8D10E00F5F1F4F0F73112726
:1002B000E02E8C8DE8120CC00FB607FCFACFE8894F
:1002C000F989808185FFF5CFCE010E941D01F1CF14
:1002D0008B8DFE01E80FF11DE35AFF4FF0829FB7AF
:1002E000F8940B8FEA89FB89808180620AC09FB7EE
:1002F000F894EE89FF896083E889F98980818370A9
:10030000806480839FBF81E090E0DF91CF911F9157
:100310000F91FF90EF900895CF93DF93EC01888DBC
:100320008823C9F0EA89FB89808185FD05C0A889F9
:10033000B9898C9186FD0FC00FB607FCF5CF80817F
:1003400085FFF2CFA889B9898C9185FFEDCFCE01C9
:100350000E941D01E7CFDF91CF91089580E090E0EA
:10036000892B29F00E94130181110C94000008953B
:10037000EF920F931F93F901DA013C912E2D2095F6
:1003800032233C9330813E293083FC01D80198E030
:1003900080E030E020E04C914E2189F02A95D9F799
:1003A00020E04C914E2159F02A95D9F720E84C9144
:1003B0004E2129F02A95D9F73A9561F717C047E001
:1003C0004A95F1F7000031E0550F4C914E2109F0AC
:1003D00051609A9529F45193839598E0681731F00C
:1003E00020E84C914E2111F72A95D9F71F910F91D2
:1003F000EF9008950F931F93F9012081202B208304
:10040000DA012C91202B2C9320814081202B30E08D
:1004100010E00095109550E004231523DC015D9158
:1004200048E00083550F40F474E07A95F1F720839B
:100430007AE07A95F1F705C07EE07A95F1F7000051
:1004400020834A9529F073E07A95F1F70000E9CF0F
:100450006A9529F071E07A95F1F70000E0CF72E03B
:100460007A95F1F700000000008374E07A95F1F7C7
:100470000000000020831F910F9108950E94A30E99
:100480001F920F920FB60F9211242F933F934F9309
:100490005F936F937F938F939F93AF93BF93EF93EC
:1004A000FF9386E196E00E941D01FF91EF91BF91BD
:1004B000AF919F918F917F916F915F914F913F91FC
:1004C0002F910F900FBE0F901F9018951F920F92B3
:1004D0000FB60F9211242F938F939F93EF93FF9357
:1004E000E0912606F09127068081E0912C06F0919C
:1004F0002D0682FD12C0908180912F068F5F8F7331
:1005000020913006821751F0E0912F06F0E0EA5E6C
:10051000F94F958F80932F0601C08081FF91EF9155
:100520009F918F912F910F900FBE0F901F90189554
:100530007F928F929F92AF92BF92CF92DF92EF9273
:10054000FF920F931F93CF93DF93DB01642F590129
:10055000F02E282F30E0F901EA51FF4FE490F90125
:10056000EE52FF4F249130E0220F331FF901E85380
:10057000FF4FC591D491F901E254FF4FC590D4903B
:10058000F901E056FF4F859094907FB6F8940E2DB8
:100590009601AE01CD010E94FA0184019601AE01DF
:1005A0006F2DC5010E94B8017FBEDF91CF911F91D1
:1005B0000F91FF90EF90DF90CF90BF90AF909F9002
:1005C0008F907F9008953F924F925F926F927F92AB
:1005D0008F929F92AF92BF92CF92DF92EF92FF9253
:1005E0000F931F93CF93DF9300D01F92CDB7DEB749
:1005F0003B014A01290190E0FC01EA51FF4FF490D0
:10060000FC01EE52FF4F849190E0880F991FFC018E
:10061000E853FF4FC590D490FC01E254FF4FA590E2
:10062000B490FC01E056FF4F059114913FB6F89449
:1006300019821A821B82EF2C9501A60163E0CE017C
:1006400001960E94B8018130B9F48981811109C0F5
:100650000F2D9501A60163E0C3010E94FA0181E01C
:100660002BC0813411F50F2D9501A6016AE0C4015C
:100670000E94FA0182E020C08330B9F4898180347D
:10068000A1F48A81833089F40F2D9501A60168E0D9
:10069000C2010E94FA018B818370813041F0823067
:1006A00041F0833041F486E007C080E005C084E07B
:1006B00003C085E001C083E03FBE0F900F900F9014
:1006C000DF91CF911F910F91FF90EF90DF90CF902E
:1006D000BF90AF909F908F907F906F905F904F9062
:1006E0003F9008951F920F920FB60F9211242F93EF
:1006F0008F939F9390913B0181E0892780933B01E9
:100700008091040190910501813921E092072CF438
:100710000196909305018093040180913C01909192
:100720003D01843291052CF4019690933D01809314
:100730003C0180910101909102018B3591052CF4CF
:10074000019690930201809301019F918F912F91C7
:100750000F900FBE0F901F90189580910001882375
:1007600079F080913901811104C080913A01882388
:1007700039F01092020110920101109200010895C7
:1007800080910101909102019C012A503109293088
:100790003105A0F420914001222321F0209138015D
:1007A000222341F020913F01222341F02091380182
:1007B000222321F081E080933E0108959C012C5179
:1007C00031092930310580F420914001223020F098
:1007D00020913801222371F320913F01223020F033
:1007E000209138012111E6CF9C012E523109293088
:1007F000310580F420914001233020F02091380110
:100800002223C1F220913F01233020F020913801B2
:100810002111D0CF9C01205431092930310580F4B9
:1008200020914001243020F020913801222311F240
:1008300020913F01243020F0209138012111BACFBE
:1008400082559109099788F480914001853028F0FC
:1008500080913801882309F4ADCF80913F01853024
:1008600020F0809138018111A5CF10923E010895AA
:10087000009769F0FC0101900020E9F73197AF0182
:10088000481B590BBC0186E196E00C94A80080E05F
:1008900090E008958F929F92AF92BF920F931F9313
:1008A000CF93DF93CDB7DEB7A1970FB6F894DEBF35
:1008B0000FBECDBF19A2423008F44AE08E010F5D91
:1008C0001F4F842E912CA12CB12CA50194010E94C4
:1008D000440EE62FB901CA0101501109EA3014F49F
:1008E000E05D01C0E95CD801EC93232B242B252B80
:1008F00061F7C8010E943804A1960FB6F894DEBFD4
:100900000FBECDBFDF91CF911F910F91BF90AF90E0
:100910009F908F900895CF92DF92EF92FF92CF93A6
:10092000DF936C01990FEE08FF08F7FE19C06DE226
:1009300086E196E00E943F01EC0166277727CB0114
:100940006C197D098E099F094AE00E944A048C0FA8
:100950009D1FDF91CF91FF90EF90DF90CF90089592
:100960004AE0C701B601DF91CF91FF90EF90DF9091
:10097000CF900C944A0485E391E00C943804CF9313
:10098000DF9390E0FC01EA51FF4F2491FC01EE520D
:10099000FF4F84918823C1F090E0880F991FFC01DC
:1009A000E853FF4FC591D491FC01E254FF4FA5914C
:1009B000B4919FB7F8948881322F30958323888330
:1009C000EC91E22BEC939FBFDF91CF91089590E0E3
:1009D000FC01E655FF4F2491FC01EA51FF4F349191
:1009E000FC01EE52FF4FE491EE23B9F1222339F1DD
:1009F000233091F038F42130A9F0223001F584B58C
:100A00008F7D12C0273091F02830A1F02430B9F446
:100A1000809180008F7D03C0809180008F778093CC
:100A200080000DC084B58F7784BD09C08091B0006F
:100A30008F7703C08091B0008F7D8093B000F0E08D
:100A4000EE0FFF1FE056FF4FA591B491EC91E32309
:100A500081E090E021F480E0089580E090E0089546
:100A60001F920F920FB60F9211242F933F938F93E3
:100A70009F93AF93BF938091CF069091D006A091A2
:100A8000D106B091D2063091CE0623E0230F2D3748
:100A900020F40196A11DB11D05C026E8230F029682
:100AA000A11DB11D2093CE068093CF069093D00652
:100AB000A093D106B093D2068091CA069091CB063E
:100AC000A091CC06B091CD060196A11DB11D8093D9
:100AD000CA069093CB06A093CC06B093CD06BF91E7
:100AE000AF919F918F913F912F910F900FBE0F90DB
:100AF0001F901895CF93DF93CDB7DEB7A0970FB6B1
:100B0000F894DEBF0FBECDBF789484B5826084BDFB
:100B100084B5816084BD85B5826085BD85B5816001
:100B200085BD80916E00816080936E00109281007F
:100B3000809181008260809381008091810081603A
:100B400080938100809180008160809380008091FB
:100B5000B10084608093B1008091B0008160809387
:100B6000B00080917A00846080937A0080917A004E
:100B7000826080937A0080917A00816080937A000D
:100B800080917A00806880937A001092C100109260
:100B9000140610921306E0912606F091270682E0D3
:100BA0008083E0912206F09123061082E0912406D2
:100BB000F091250680E1808310922E06E0912A06AE
:100BC000F0912B0686E08083E0912806F0912906BB
:100BD000808180618083E0912806F09129068081E0
:100BE00088608083E0912806F091290680818068E2
:100BF0008083E0912806F091290680818F7D808393
:100C0000F89410928000109281001092850010924A
:100C1000840082E194E09093890080938800809121
:100C2000810088608093810080918100846080933E
:100C3000810080916F00826080936F00789484E0DF
:100C40000E94BF0485E00E94BF04FF24FA946BEB6E
:100C5000E62E812C912C540193948091B4069091AE
:100C6000B506892BC1F09091B60693FB992790F9B0
:100C70008091C90620E4298B23E02A8B9B8B08E016
:100C800021EC36E043E0BE016F5E7F4F0E94980288
:100C90008830F9F022C08091C906198A03E024EB5C
:100CA00036E041E0BE016F5E7F4F0E9498028330C4
:100CB000A1F48091C90641E4498B0AE027EB36E0B4
:100CC00041E0BE016F5E7F4F0E9498028A3059F268
:100CD0000AC08091C10685FF06C01092B40610922A
:100CE000B5061092B6068091B60688A388E0E1ECBE
:100CF000F6E0DE01119601900D928A95E1F788E009
:100D0000FE013196DE01199601900D928A95E1F768
:100D100088E0FE013996DE01519601900D928A9588
:100D2000E1F70A8500FB222420F806950170CB84A8
:100D3000DC849D85998F2E852A8F4F8458888989D8
:100D4000482F41704B8F4093120691E0282F22705C
:100D50002C8F81FF90E09093110691E0482F447012
:100D60004D8F82FF90E09093100691E0282F28701D
:100D70002E8F83FF90E090930F061A8920FA10F9C6
:100D800000FB11F91A8B91E0412F40714F8F14FF36
:100D900090E090930E0691E0282F2071622E84FF40
:100DA00090E09093070681E0412F4870742E13FF66
:100DB00080E08093420184E00E94E70421E030E07B
:100DC000892B11F020E030E0C901820D911D1C013A
:100DD00081E02114310409F480E080933A0185E038
:100DE0000E94E70421E030E0892B11F020E030E0A0
:100DF000C901800F911D21E0009709F420E02093A4
:100E0000390121E0312F347012FF20E0209344019A
:100E100016FB222720F920930D0615FB222720F927
:100E200020930C064092050650920606C0920B06CF
:100E3000D0920A06298D209309064A8D4093080610
:100E400048A143FB222720F920933E012B8D21113D
:100E50002CC04C8D411129C02D8D211126C04E8DE5
:100E6000411123C02F8D211120C061101EC07110AF
:100E70001CC021143104C9F40097B9F41476A9F404
:100E80004BE6441590F0451580F029E92C0D2333ED
:100E900060F429E92D0D233340F4298D275623339F
:100EA00020F42A8D2756233318F01092490113C0DD
:100EB0002091080123FF0FC02091490121110BC08F
:100EC00020914001211104C020913F01222319F0FB
:100ED00021E02093490120911B012223A1F033231B
:100EE00021F021E0209315060EC0662019F0109223
:100EF000030109C04091040150910501403951405E
:100F000014F010921B0120911506211193C423287F
:100F1000E1F020914601211118C0809140018F5FBE
:100F200080934001833029F4C0924801D092470158
:100F30003EC0843019F40E94BB0D39C08530B9F130
:100F400008F498C51092400132C0892B79F0809145
:100F5000450181110BC080913F018F5F853018F4EE
:100F600080933F0124C010923F0121C0332389F0B8
:100F70008091430181110DC080910306813019F4E5
:100F80001092030603C081E08093030610920206CC
:100F90000EC0772061F080914101811108C010924C
:100FA00003069091020681E0892780930206109142
:100FB0003A01112321F080914601882359F0809154
:100FC0000101909102018B35910544F48091380123
:100FD000811104C0109238010E94AD0300913901C3
:100FE000002321F080914501882359F0809101016F
:100FF000909102018B3591054CF480913801882342
:1010000029F081E0809338010E94AD03011105C0F1
:10101000111103C081E080930001109346010093F9
:101020004501809144018093430180914201809366
:10103000410180913F01843009F443C08091400117
:10104000813091F480914901811104C080910301A4
:101050008823B9F180913B01882319F010920B0687
:1010600030C0F0920B062DC08230C9F48091490146
:10107000811104C080910301882319F10E94BB0DE6
:10108000A50194010E94120E60930B060E94BB0DF5
:10109000A50194010E94120E60930A0612C08330CB
:1010A00081F480914901811104C08091030188235A
:1010B00041F08091480180930B0680914701809315
:1010C0000A0680913F01813071F4809149018111BC
:1010D00005C080910301882309F455C080913B012C
:1010E00080930D0650C0823071F4809149018111C6
:1010F00005C080910301882309F445C080913B011C
:1011000080930F0640C08330A9F48091490181117A
:1011100004C0809103018823B1F180E880930B061D
:1011200010920A0680913B01882369F181E0809347
:10113000110629C0843029F580910406811108C068
:1011400010923D0110923C0181E0809304061BC087
:1011500080913C0190913D01059734F481E08093AA
:101160000D06F092050609C081E080930D06F0920D
:10117000050680913B018093110681EB80930A065E
:1011800002C01092040680910306813009F038C134
:101190009091010691110BC010920501109204016B
:1011A0008093010620914F0180E090E014C180916E
:1011B0001206882329F080914F01816080934F01AE
:1011C00080911106882329F080914F0182608093DD
:1011D0004F0180911006882329F080914F0184608F
:1011E00080934F0180910F06882329F080914F0151
:1011F000886080934F0180910E06882329F08091AA
:101200004F01806180934F0180910D06882329F062
:1012100080914F01806280934F0180910C0688235A
:1012200029F080914F01806480934F0180910706DF
:10123000882329F080914F01806880934F0180912D
:101240000906853410F491E023C090910B062BEB36
:10125000290F2D3010F492E01BC02EEA290F243103
:1012600010F493E015C02AE9290F253310F494E017
:101270000FC025E6290F243110F495E009C021E5BF
:10128000290F2D3010F496E003C09C3B18F097E036
:1012900090934E0190910A06953410F491E01EC08F
:1012A0002BEB290F293010F492E018C022EB290F04
:1012B000283110F493E012C02AE9290F253310F4E5
:1012C00094E00CC025E6290F293110F495E006C002
:1012D000945B983010F496E001C097E090934D0134
:1012E000853410F481E01EC09BEB980F9D3010F404
:1012F00082E018C09EEA980F943110F483E012C087
:101300009AE9980F953310F484E00CC095E6980F95
:10131000943110F485E006C08F5A8D3010F486E0C9
:1013200001C087E080934C0180910806853410F459
:1013300081E01EC09BEB980F993010F482E018C03A
:1013400092EB980F983110F483E012C09AE9980F4D
:10135000953310F484E00CC095E6980F993110F4A1
:1013600085E006C0845B883010F486E001C087E029
:1013700080934B01609104017091050130914E0101
:10138000377040914D01477090914C0120914B0175
:101390002770FB01EE0FFF1FE60FF71FDF01A05BB9
:1013A000BE4F80914F018C93EF5AFE4F440F440F74
:1013B000440F892F8295880F880F807C342B382B1F
:1013C000308392FB992790F98181807F220F892BAE
:1013D000822B8183E7CE41E050E060E070E0082E90
:1013E00004C0440F551F661F771F0A94D2F740951B
:1013F000242301968830910571F720934F011AC27A
:10140000823009F01EC180910E06882309F408C1BC
:1014100080911206882329F080914F01816080938A
:101420004F0180911106882329F080914F0182603D
:1014300080934F0180911006882329F080914F01FD
:10144000846080934F0180910F06882329F080915A
:101450004F01886080934F0180914F01982F9061D8
:1014600090934F0190910D06992319F0806380931A
:101470004F0180910C06882329F080914F018064F0
:1014800080934F0180910706882329F080914F01B6
:10149000806880934F0180910906853410F491E0B3
:1014A00023C090910B062BEB290F2D3010F492E006
:1014B0001BC02EEA290F243110F493E015C02AE94D
:1014C000290F253310F494E00FC025E6290F2431AD
:1014D00010F495E009C021E5290F2D3010F496E0B5
:1014E00003C09C3B18F097E090934E0190910A0640
:1014F000953410F491E01EC02BEB290F293010F425
:1015000092E018C022EB290F283110F493E012C0AA
:101510002AE9290F253310F494E00CC025E6290FA1
:10152000293110F495E006C0945B983010F496E0F1
:1015300001C097E090934D01853410F481E01EC006
:101540009BEB980F9D3010F482E018C09EEA980F34
:10155000943110F483E012C09AE9980F953310F497
:1015600084E00CC095E6980F943110F485E006C035
:101570008F5A8D3010F486E001C087E080934C01D3
:1015800080910806853410F481E01EC09BEB980F13
:10159000993010F482E018C092EB980F983110F453
:1015A00083E012C09AE9980F953310F484E00CC0E0
:1015B00095E6980F993110F485E006C0845B883079
:1015C00010F486E001C087E080934B0120914E012A
:1015D000277030914D01377080914C0190914B01F3
:1015E000977040914F0140935001330F330F330FE9
:1015F000482F4295440F440F407C232B242B2093EB
:10160000510182FB222720F980915201807F990F9E
:10161000822B892B8093520181E080934A010AC179
:1016200080914A01882309F405C1809104019091B9
:1016300005010196909305018093040110924A01DF
:10164000F9C080910206882309F4F0C08091000659
:10165000811108C0109205011092040181E080936D
:101660000006E8C08091040190910501803941E0B5
:1016700094070CF0D6C09C01220F331FF901E80F2C
:10168000F91FE05BFE4F408140934F0140FF03C0D4
:1016900051E05093120641FF03C051E050931106F0
:1016A00042FF03C051E05093100643FF03C051E0D6
:1016B00050930F0644FF03C051E050930E0645FFC0
:1016C00003C051E050930D0646FF03C051E0509314
:1016D0000C0647FF03C041E040930706F901E80FFD
:1016E000F91FEF5AFE4F4081E42FE7704E2F50E074
:1016F000FA013197E730F105B0F4EC5CFF4F0C9440
:10170000890E10920B060FC045E401C042E54093DC
:101710000B0609C040E8FBCF4EEAF9CFE0920B067A
:1017200002C0F0920B06F901E80FF91FEF5AFE4FC5
:101730004081469546954695E42FE7704E2F50E040
:10174000FA013197E730F105B0F4E55CFF4F0C94F6
:10175000890E10920A060FC045E401C04EE4409382
:101760000A0609C040E8FBCF43EBF9CFE0920A0636
:1017700002C0F0920A06D901A80FB91FAF5ABE4F96
:10178000EC915E2F529556955695537011964C914B
:101790004170440F440FE42FE52B4E2F50E0FA0127
:1017A0003197E730F105B0F4EE5BFF4F0C94890EF2
:1017B000109209060FC045E401C042E540930906B6
:1017C00009C040E8FBCF4EEAF9CFE092090602C01B
:1017D000F0920906820F931FFC01EE5AFE4F8081A2
:1017E0008695E82FE7708E2F90E0FC013197E73067
:1017F000F10500F5E75BFF4F0C94890E1092080687
:1018000019C085E401C08EE48093080613C080E807
:10181000FBCF83EBF9CFE09208060CC0F0920806EC
:1018200009C0109205011092040104C01092010633
:1018300010920006809113019091120690FB80F99E
:101840009091110690FB81F99091100690FB82F91E
:1018500090910F0690FB83F98093130190911401EE
:1018600020910E0620FB94F9909314019091400171
:1018700091110AC090913F01911106C09091070605
:1018800090FB84F98093130180911401887F877FF6
:101890008093140120910606253618F480910C06D9
:1018A00001C081E0819580931A01909105069536DB
:1018B00018F480910D0601C081E081958093190193
:1018C000253618F420910C0601C021E08091140106
:1018D00020FB85F980931401953618F490910D063C
:1018E00001C091E08091140190FB86F9809314016E
:1018F00080910B068093150180910A068093160152
:101900008091090680931701809108068093180141
:101910008091B60690913E0190FB83F98093B606C4
:101920008091130185FD35C01FB7F89423E131E0A4
:1019300049E051E066E071E08091B3060E94E30265
:10194000813051F423E131E049E051E066E071E09B
:101950008091B3060E94E302823051F423E131E02A
:1019600049E051E066E071E08091B3060E94E30235
:101970001FBF833021F480910801877F05C0843028
:1019800031F48091080188608093080102C085309D
:1019900091F32091130630911406C90165E070E0BF
:1019A0000E94750E892B09F05CC08091120690E0B0
:1019B0000E948B040E94BB048091110690E00E945B
:1019C0008B040E94BB048091100690E00E948B045F
:1019D0000E94BB0480910F0690E00E948B040E943D
:1019E000BB0480910E0690E00E948B040E94BB0411
:1019F00080910D0690E00E948B040E94BB048091B0
:101A00000C0690E00E948B040E94BB0460910B06C0
:101A100070E080E090E04AE00E944A040E94BB042B
:101A200060910A0670E080E090E04AE00E944A047B
:101A30000E94BB046091090670E080E090E04AE0FB
:101A40000E944A040E94BB046091080670E080E096
:101A500090E04AE00E944A0482E391E00E94380448
:101A600006C02F5F3F4F30931406209313060E9449
:101A7000AE01F3C810913A019ECAE6E1F6E0138286
:101A8000128288EE93E0A0E0B0E084839583A68381
:101A9000B78384E291E09183808385EC90E0958721
:101AA000848784EC90E09787868780EC90E0918B28
:101AB000808B81EC90E0938B828B82EC90E0958B15
:101AC000848B86EC90E0978B868B118E128E138E12
:101AD000148E82E08093C90683E08093B306089554
:101AE0008F929F92AF92BF92CF92DF92EF92FF922E
:101AF000CF93DF93EC01688179818A819B816115A5
:101B000071058105910521F464E279ED8BE597E09B
:101B10002DE133EF41E050E00E94120E49015A01DD
:101B20009B01AC01A7EAB1E40E94310E6B017C017C
:101B3000ACEEB4EFA50194010E943F0EDC01CB0195
:101B40008C0D9D1DAE1DBF1DB7FF03C00197A109E0
:101B5000B04888839983AA83BB83BC01CD019F775A
:101B6000DF91CF91FF90EF90DF90CF90BF90AF903B
:101B70009F908F9008958F929F92AF92BF92CF9235
:101B8000DF92EF92FF9260911C0170911D01809194
:101B90001E0190911F01611571058105910521F4C8
:101BA00064E279ED8BE597E02DE133EF41E050E021
:101BB0000E94120E49015A019B01AC01A7EAB1E44F
:101BC0000E94310E6B017C01ACEEB4EFA5019401D3
:101BD0000E943F0EDC01CB018C0D9D1DAE1DBF1D73
:101BE000B7FF03C00197A109B04880931C019093EF
:101BF0001D01A0931E01B0931F01BC01CD019F7771
:101C0000FF90EF90DF90CF90BF90AF909F908F901C
:101C1000089560931C0170931D0180931E019093A1
:101C20001F010895052E97FB1EF400940E94290EB3
:101C300057FD07D00E94440E07FC03D04EF40C94CD
:101C4000290E50954095309521953F4F4F4F5F4F4E
:101C5000089590958095709561957F4F8F4F9F4F18
:101C600008950E94660EA59F900DB49F900DA49FAD
:101C7000800D911D11240895B7FF0C94310E0E9420
:101C8000310E821B930B0895A1E21A2EAA1BBB1BD7
:101C9000FD010DC0AA1FBB1FEE1FFF1FA217B30738
:101CA000E407F50720F0A21BB30BE40BF50B661F4E
:101CB000771F881F991F1A9469F760957095809512
:101CC00090959B01AC01BD01CF010895A29FB00189
:101CD000B39FC001A39F700D811D1124911DB29F60
:101CE000700D811D1124911D089597FB072E16F488
:101CF000009407D077FD09D00E948F0E07FC05D015
:101D00003EF4909581959F4F0895709561957F4F12
:101D10000895EE0FFF1F0590F491E02D0994AA1B82
:101D2000BB1B51E107C0AA1FBB1FA617B70710F0C6
:101D3000A61BB70B881F991F5A95A9F780959095F8
:101D4000BC01CD01089581E090E0F8940C94A80EB8
:041D5000F894FFCF35
:101D54000149000186010900030080808080801F02
:101D64001F00000080808080801F1F010100000090
:101D7400000000003F01A800D6008C010701E50027
:081D8400F9000D0A002C00001B
:00000001FF
