:100000000C9474000C949C000C949C000C949C0028
:100010000C949C000C949C000C949C000C949C00F0
:100020000C949C000C949C000C949C000C947E03FB
:100030000C949C000C949C000C949C000C949C00D0
:100040000C9463050C949C000C945C020C94360296
:100050000C949C000C949C000C949C000C949C00B0
:100060000C949C000C949C00730D760D780D7C0D07
:100070007E0D800D830D9B0D9E0DA00DA40DA60D74
:10008000A80DAB0DCA0DCD0DCF0DD30DD50DD70DD0
:10009000DA0DF00DF30DF50DF90DFB0DFD0D000E54
:1000A00000000000230026002900000000002500B9
:1000B00028002B0000000000240027002A00040470
:1000C0000404040404040202020202020303030300
:1000D00003030102040810204080010204081020DC
:1000E000010204081020620F11241FBECFEFD8E0D8
:1000F000DEBFCDBF11E0A0E0B1E0ECE8F1E202C06C
:1001000005900D92A633B107D9F727E0A6E3B1E039
:1001100001C01D92A430B207E1F710E0C4E7D0E0BF
:1001200004C02197FE010E94B910C337D107C9F757
:100130000E94AD050C94C4100C940000CF92DF9285
:10014000EF92FF920F931F93CF93DF936C017A018D
:100150008B01C0E0D0E0CE15DF0581F0D8016D91B4
:100160008D01D601ED91FC910190F081E02DC60149
:100170000995892B11F02196EECF7E01C701DF9101
:10018000CF911F910F91FF90EF90DF90CF90089546
:10019000089580E090E00895FC01538D448D252F53
:1001A00030E0842F90E0821B930B541710F0CF9611
:1001B000089501970895FC01918D828D981761F043
:1001C000828DDF01A80FB11D5D968C91928D9F5F8E
:1001D0009F73928F90E008958FEF9FEF0895FC0139
:1001E000918D828D981731F0828DE80FF11D858DEC
:1001F00090E008958FEF9FEF0895FC01918D228D7F
:10020000892F90E0805C9F4F821B91098F73992703
:10021000089587E496E00E94FD0021E0892B09F40F
:1002200020E0822F0895FC01848DDF01A80FB11D0D
:10023000A35ABF4F2C91848D90E001968F7399271C
:10024000848FA689B7892C93A089B1898C918370FA
:1002500080648C93938D848D981306C00288F389F3
:10026000E02D80818F7D80830895EF92FF920F9320
:100270001F93CF93DF93EC0181E0888F9B8D8C8D52
:10028000981305C0E889F989808185FD26C0F62E7E
:100290000B8D10E00F5F1F4F0F731127E02E8C8D19
:1002A000E8120CC00FB607FCFACFE889F989808103
:1002B00085FFF5CFCE010E941301F1CF8B8DFE019A
:1002C000E80FF11DE35AFF4FF0829FB7F8940B8FB0
:1002D000EA89FB89808180620AC09FB7F894EE8921
:1002E000FF896083E889F9898081837080648083D5
:1002F0009FBF81E090E0DF91CF911F910F91FF9020
:10030000EF900895CF93DF93EC01888D8823C9F097
:10031000EA89FB89808185FD05C0A889B9898C910E
:1003200086FD0FC00FB607FCF5CF808185FFF2CFA9
:10033000A889B9898C9185FFEDCFCE010E94130168
:10034000E7CFDF91CF91089580E090E0892B29F0ED
:100350000E94090181110C9400000895EF920F93FF
:100360001F93F901DA013C912E2D209532233C9305
:1003700030813E293083FC01D80198E080E030E0F4
:1003800020E04C914E2189F02A95D9F720E04C913C
:100390004E2159F02A95D9F720E84C914E2129F0A9
:1003A0002A95D9F73A9561F717C047E04A95F1F7D2
:1003B000000031E0550F4C914E2109F051609A95A3
:1003C00029F45193839598E0681731F020E84C9117
:1003D0004E2111F72A95D9F71F910F91EF900895AB
:1003E0000F931F93F9012081202B2083DA012C9198
:1003F000202B2C9320814081202B30E010E00095B1
:10040000109550E004231523DC015D9148E0008342
:10041000550F40F474E07A95F1F720837AE07A95ED
:10042000F1F705C07EE07A95F1F7000020834A9548
:1004300029F073E07A95F1F70000E9CF6A9529F089
:1004400071E07A95F1F70000E0CF72E07A95F1F76C
:1004500000000000008374E07A95F1F700000000CE
:1004600020831F910F9108950E94BF101F920F9239
:100470000FB60F9211242F933F934F935F936F9377
:100480007F938F939F93AF93BF93EF93FF9387E4F3
:1004900096E00E941301FF91EF91BF91AF919F9160
:1004A0008F917F916F915F914F913F912F910F901D
:1004B0000FBE0F901F9018951F920F920FB60F92BC
:1004C00011242F938F939F93EF93FF93E0915706FF
:1004D000F09158068081E0915D06F0915E0682FD04
:1004E00012C09081809160068F5F8F7320916106AA
:1004F000821751F0E0916006F0E0E95BF94F958FCB
:100500008093600601C08081FF91EF919F918F9150
:100510002F910F900FBE0F901F9018957F928F9282
:100520009F92AF92BF92CF92DF92EF92FF920F9382
:100530001F93CF93DF93DB01642F5901F02E282FF7
:1005400030E0F901EE52FF4FE490F901E254FF4F21
:10055000249130E0220F331FF901EC54FF4FC59175
:10056000D491F901E655FF4FC590D490F901E056BA
:10057000FF4F859094907FB6F8940E2D9601AE01B2
:10058000CD010E94F00184019601AE016F2DC501DD
:100590000E94AE017FBEDF91CF911F910F91FF901E
:1005A000EF90DF90CF90BF90AF909F908F907F9013
:1005B00008953F924F925F926F927F928F929F9297
:1005C000AF92BF92CF92DF92EF92FF920F931F9361
:1005D000CF93DF9300D01F92CDB7DEB73B014A0126
:1005E000290190E0FC01EE52FF4FF490FC01E2542F
:1005F000FF4F849190E0880F991FFC01EC54FF4F4E
:10060000C590D490FC01E655FF4FA590B490FC0135
:10061000E056FF4F059114913FB6F89419821A8263
:100620001B82EF2C9501A60163E0CE0101960E948A
:10063000AE018130B9F48981811109C00F2D950176
:10064000A60163E0C3010E94F00181E02BC0813468
:1006500011F50F2D9501A6016AE0C4010E94F00179
:1006600082E020C08330B9F489818034A1F48A818A
:10067000833089F40F2D9501A60168E0C2010E9424
:10068000F0018B818370813041F0823041F0833002
:1006900041F486E007C080E005C084E003C085E047
:1006A00001C083E03FBE0F900F900F90DF91CF917C
:1006B0001F910F91FF90EF90DF90CF90BF90AF9080
:1006C0009F908F907F906F905F904F903F90089594
:1006D0001F93CF93DF93EC01162F0E944010181741
:1006E00039F0612FCE01DF91CF911F910C9448100A
:1006F000DF91CF911F9108950C9440101F920F929B
:100700000FB60F9211242F938F939F9390913701DF
:1007100081E089278093370180910501909106013E
:10072000813921E092072CF4019690930601809381
:10073000050180910301843218F48F5F80930301D7
:1007400080910401843218F48F5F809304018091BA
:1007500002018B3518F48F5F8093020180910001B4
:10076000803118F48F5F809300019F918F912F91BA
:100770000F900FBE0F901F901895AF92CF92EF92EF
:100780000F931F93CF93DF93162FD42FC22F811176
:1007900003C080E090E002C081E390E00E94360553
:1007A000111103C080E090E002C081E390E00E945C
:1007B0003605D11103C080E090E002C081E390E0F3
:1007C0000E943605C11103C080E090E002C081E3C1
:1007D00090E00E943605011103C080E090E002C065
:1007E00081E390E00E943605E11003C080E090E0D4
:1007F00002C081E390E00E943605C11003C080E092
:1008000090E002C081E390E00E943605A11003C091
:1008100080E090E002C081E390E0DF91CF911F91F2
:100820000F91EF90CF90AF900C943605809101011D
:10083000882369F080913D01811104C080913E01BF
:10084000882329F0109202011092010108958091ED
:10085000020196EF980F993020F590913C01992371
:1008600021F0909136019923C1F090913B01992399
:1008700021F090913601911110C090913901992386
:1008800021F090913601911108C09091380199237F
:1008900041F090913601992321F081E080933A0153
:1008A000089594EE980F993000F590913C019230A4
:1008B00020F090913601992381F390913B01923081
:1008C00020F0909136019111E8CF9091390192304A
:1008D00020F0909136019111E0CF90913801923043
:1008E00020F0909136019111D8CF92ED980F993068
:1008F00000F590913C01933020F0909136019923BE
:1009000061F290913B01933020F09091360191116A
:10091000C4CF90913901933020F09091360191111C
:10092000BCCF90913801933020F090913601911115
:10093000B4CF90EC980F993008F590913C01943029
:1009400028F090913601992309F4A7CF90913B01AB
:10095000943020F09091360191119FCF9091390100
:10096000943020F090913601911197CF90913801F9
:10097000943020F09091360191118FCF82558930BB
:1009800008F580913C01853028F08091360188235C
:1009900009F483CF80913B01853020F080913601AE
:1009A00081117BCF80913901853020F08091360113
:1009B000811173CF80913801853020F0809136010C
:1009C00081116BCF10923A0108958F929F92AF924E
:1009D000BF920F931F93CF93DF93CDB7DEB7A1974D
:1009E0000FB6F894DEBF0FBECDBF19A2423008F497
:1009F0004AE08E010F5D1F4F842E912CA12CB12C4B
:100A0000A50194010E948810E62FB901CA01015086
:100A10001109EA3014F4E05D01C0E95CD801EC93FF
:100A2000232B242B252B61F70115110571F0F801FB
:100A300001900020E9F73197AF01401B510BB8013D
:100A400087E496E00E949E0002C080E090E0A196BC
:100A50000FB6F894DEBF0FBECDBFDF91CF911F91CF
:100A60000F91BF90AF909F908F900895682F87E46B
:100A700096E00C943501CF93DF9390E0FC01EE52A9
:100A8000FF4F2491FC01E254FF4F84918823C1F071
:100A900090E0880F991FFC01EC54FF4FC591D49151
:100AA000FC01E655FF4FA591B4919FB7F89488815A
:100AB000322F309583238883EC91E22BEC939FBFF8
:100AC000DF91CF9108951F920F920FB60F921124CC
:100AD0002F933F938F939F93AF93BF938091000782
:100AE00090910107A0910207B09103073091FF0692
:100AF00023E0230F2D3720F40196A11DB11D05C061
:100B000026E8230F0296A11DB11D2093FF068093B6
:100B1000000790930107A0930207B0930307809109
:100B2000FB069091FC06A091FD06B091FE06019691
:100B3000A11DB11D8093FB069093FC06A093FD06BA
:100B4000B093FE06BF91AF919F918F913F912F91EE
:100B50000F900FBE0F901F901895CF93DF93CDB7D6
:100B6000DEB768970FB6F894DEBF0FBECDBF78949E
:100B700084B5826084BD84B5816084BD85B58260A2
:100B800085BD85B5816085BD80916E008160809353
:100B90006E001092810080918100826080938100BC
:100BA00080918100816080938100809180008160CC
:100BB000809380008091B10084608093B100809127
:100BC000B00081608093B00080917A00846080934F
:100BD0007A0080917A00826080937A0080917A0016
:100BE000816080937A0080917A00806880937A0097
:100BF0001092C100E0915706F091580682E0808380
:100C0000E0915306F09154061082E0915506F09160
:100C1000560680E1808310925F06E0915B06F091BA
:100C20005C0686E08083E0915906F0915A06808147
:100C300080618083E0915906F0915A068081886036
:100C40008083E0915906F0915A0680818068808304
:100C5000E0915906F0915A0680818F7D8083F89447
:100C600010928000109281001092850010928400F2
:100C700082E194E0909389008093880080918100C4
:100C800088608093810080918100846080938100DE
:100C900080916F00826080936F00789484E00E945E
:100CA0003B0585E00E943B0583E690E00E947C03C3
:100CB0008F3F29F462E083E690E00E94680384E6B7
:100CC00090E00E947C038F3F29F463E084E690E08B
:100CD0000E94680380E090E00E947C03823028F04C
:100CE00061E080E090E00E94680381E090E00E9473
:100CF0007C03823028F060E081E090E00E9468038D
:100D000082E090E00E947C03823028F060E082E084
:100D100090E00E94680380E090E00E947C0391E0F4
:100D2000811101C090E09093450181E090E00E9424
:100D30007C0391E0811101C090E0909345068FEF14
:100D400090E00E947C03882341F060E08FEF90E008
:100D50000E946803E0E0F0E0099541E4242E50E4AD
:100D6000352E62E0F62E1FEF7BEBB72E412C512C77
:100D7000320153948091E5069091E606892BB9F0F3
:100D80009091E70693FB992790F98091FA06398AAA
:100D900023E02A8B9B8B08E022EF36E043E0BE0184
:100DA0006F5E7F4F0E948E028830F1F021C08091EB
:100DB000FA06198A03E025EE36E041E0BE016F5ED7
:100DC0007F4F0E948E02833099F48091FA06298A1F
:100DD0000AE028EE36E041E0BE016F5E7F4F0E94E0
:100DE0008E028A3069F20AC08091F20685FF06C041
:100DF0001092E5061092E6061092E7069090E7063C
:100E000088E0E2EFF6E0DE01119601900D928A95FE
:100E1000E1F788E0FE013196DE01199601900D920E
:100E20008A95E1F788E0FE013996DE01519601903E
:100E30000D928A95E1F75B854C853D852E850F8562
:100E4000E8889989892F81708093440691FB8827CF
:100E500080F98093430692FB882780F980934206AD
:100E600093FB882780F9809341068A8984FB662753
:100E700060F960933D0661E0F92FF0718F2E94FFC9
:100E800060E06093400683FB662760F960933E064E
:100E9000682F617060933E0181FB662760F9609363
:100EA0003D0161E0782F7470A72E82FF60E06093AF
:100EB0003F0686FB662760F960933B0685FB662745
:100EC00060F960933C0600930906E0920A0650938D
:100ED0000806409307063093060620930506A3E311
:100EE000B6E060E070E0C52ED12CF601062E02C0FF
:100EF000F595E7950A94E2F7E170ED936F5F7F4F08
:100F00006830710591F7ABE2B6E060E070E0C42EA6
:100F1000D12CF601062E02C0F595E7950A94E2F76A
:100F2000E170ED936F5F7F4F6830710591F7A3E239
:100F3000B6E060E070E0C32ED12CF601062E02C0B0
:100F4000F595E7950A94E2F7E170ED936F5F7F4FB7
:100F50006830710591F7ABE1B6E060E070E0C22E59
:100F6000D12CF601062E02C0F595E7950A94E2F71A
:100F7000E170ED936F5F7F4F6830710591F7A3E1EA
:100F8000B6E060E070E0C02ED12CF601062E02C063
:100F9000F595E7950A94E2F7E170ED936F5F7F4F67
:100FA0006830710591F7ABE0B6E060E070E0CE2C00
:100FB000D12CF601062E02C0F595E7950A94E2F7CA
:100FC000E170ED936F5F7F4F6830710591F793FA91
:100FD000992490F890923A01692F6F70D1F4982B70
:100FE00094FD17C08F76A9F40C3698F48BE68E1515
:100FF00080F089E9850F833360F489E9840F8333B6
:1010000040F489E9830F833320F489E9820F833325
:1010100048F010924A01109200011092460110927D
:1010200049011BC0809100018031B9F48091090110
:1010300083FF13C080914A0181110FC080913C0150
:10104000811108C080913B01811104C08091380159
:10105000882319F081E080934A018091460682300E
:1010600070F5511106C0411104C0311102C0222394
:1010700019F081E080934606AA2061F081E090E0BB
:101080000E947C0361E0811160E06093450681E08D
:1010900090E00DC0882069F080E090E00E947C0321
:1010A00061E0811160E06093450180E090E00E9482
:1010B000680380914606813011F4F09246068091D3
:1010C00045068111A9C500913E01002371F180916F
:1010D000420181112AC080913C018F5F80933C01C5
:1010E000833049F48091080680934401809107067B
:1010F000809343016FC0843019F40E94E90F6AC0E5
:10110000853069F4809108068856813308F062C002
:10111000809107068856813308F460C05BC0863032
:1011200008F45CC010923C0155C080913D018823B9
:1011300061F180914101811128C0809145018111A7
:1011400016C080913B06811104C080910906853646
:1011500070F010923B01809139018F5F80933901CB
:10116000109238018530B0F11092390133C080916E
:101170003B018F5F80933B0110923901109238013F
:10118000843040F110923B0125C080913F068823B6
:1011900089F08091400181110DC080910406813059
:1011A00019F41092040603C081E0809304061092A3
:1011B000030610C080913E06882361F080913F01B4
:1011C000811108C0109204069091030681E08927DE
:1011D0008093030600913E01002321F0809142019B
:1011E000882341F0809102018B3540F480913601D3
:1011F000811104C0109236010E941604E0903D0156
:10120000EE2021F080914101882341F0809102017C
:101210008B3548F480913601882329F081E0809352
:1012200036010E941604E11005C0011103C081E0DF
:101230008093010180914006882361F010923C0167
:1012400010923B011092390110923801109204065D
:101250001092030600934201E092410180913F0603
:101260008093400180913E0680933F0110923E01A1
:1012700010923D0110923F0610923E0680913B0174
:10128000843009F443C080913C01813091F4809115
:101290004A01811104C0809145018823B9F18091F0
:1012A0003701882319F01092080630C01093080601
:1012B0002DC08230C9F480914A01811104C080910F
:1012C0004501882319F10E94E90FA30192010E94B0
:1012D0005610609308060E94E90FA30192010E9434
:1012E00056106093070612C0833081F480914A0142
:1012F000811104C080914501882341F0809144010F
:1013000080930806809143018093070680913B01FA
:10131000813071F480914A01811105C080914501AD
:10132000882309F419C18091370180933B0614C1C9
:10133000823061F480914A01811105C0809145019C
:10134000882309F409C18091370178C08330A9F45A
:1013500080914A01811105C080914501882309F4DB
:10136000FBC080E880930806109207068091370141
:10137000882309F4F1C081E01FC0809139018130D8
:10138000F1F480933B061093090680914601811188
:101390000AC08091090183FFDFC01092030181E040
:1013A00080934601D9C0809103018B3008F4D4C0EA
:1013B000109307068091370180934306CDC0823099
:1013C000A9F481E080933B061093090680914601C1
:1013D0008823F9F2809103018B3008F4BDC010938B
:1013E0000706809137018093430634C0833099F417
:1013F00081E080933B061093090680914601882383
:1014000041F2809103018B3008F4A6C0809137012E
:1014100080933D06A1C0843001F581E080933B06B6
:10142000109309069091460191110BC0909109010A
:1014300093FF92C01092030180934601809341066E
:101440008BC0909103019B3008F486C080934106C5
:1014500080913701809344067FC0809138018130AC
:1014600009F07AC01092090610923B0610920A0603
:1014700010923C0680914A01882319F1809109015C
:1014800083FF1FC01092040181E0809349010E94F4
:10149000E90F22E030E040E050E00E94561021E0E9
:1014A000672B682B692B09F420E0209348010E94E8
:1014B000E90F24E030E040E050E00E9456106093D5
:1014C000470180914901882309F446C080910401B5
:1014D0008F3008F041C060914A0170E080E090E0F8
:1014E0004AE00E94E50442E050E062E371E087E4F4
:1014F00096E00E949E0080914801882329F0109375
:10150000090691E090933B0690914701911108C024
:10151000882319F0109208061FC0809137010AC075
:10152000913059F4882319F01093080615C0809162
:1015300037018195809308060FC0209137019230C2
:1015400029F4811103C02093440606C0222321F010
:10155000811102C01093070680910406813009F0C2
:101560003DC19091020691110BC01092060110929C
:101570000501809302062091500180E090E019C19E
:1015800080914406882329F08091500181608093E6
:10159000500180914306882329F080915001826098
:1015A0008093500180914206882329F08091500158
:1015B00084608093500180914106882329F08091B6
:1015C000500188608093500180913D06882329F066
:1015D0008091500180618093500180913B06882367
:1015E00029F08091500180628093500180913C06E7
:1015F000882329F08091500180648093500180916C
:101600004006882329F08091500180688093500122
:1016100080910606853410F491E024C0909108066C
:101620002BEB290F2D3018F4F0924F011DC02EEA3C
:10163000290F243110F493E015C02AE9290F25332E
:1016400010F494E00FC025E6290F243110F495E042
:1016500009C021E5290F2D3010F496E003C09C3B12
:1016600018F097E090934F0190910706953410F48D
:1016700091E01FC02BEB290F293018F4F0924E0196
:101680001AC022EB290F283110F493E012C02AE986
:10169000290F253310F494E00CC025E6290F2931D9
:1016A00010F495E006C0945B983010F496E001C009
:1016B00097E090934E01853410F481E01FC09BEBBE
:1016C000980F9D3018F4F0924D011AC09EEA980FC1
:1016D000943110F483E012C09AE9980F953310F416
:1016E00084E00CC095E6980F943110F485E006C0B4
:1016F0008F5A8D3010F486E001C087E080934D0151
:1017000080910506853410F481E01FC09BEB980F93
:10171000993018F4F0924C011AC092EB980F98315E
:1017200010F483E012C09AE9980F953310F484E026
:101730000CC095E6980F993110F485E006C0845BE3
:10174000883010F486E001C087E080934C016091FE
:1017500005017091060180914F01877090914E01B3
:10176000977040914D0120914C012770FB01EE0FC5
:10177000FF1FE60FF71FDF01AF5ABE4F3091500138
:101780003C93EE5AFE4F990F990F990F342F3295D3
:10179000330F330F307C892B382B308342FB992752
:1017A00090F93181307F220F832F892B822B818307
:1017B000E2CE41E050E060E070E0082E04C0440F4B
:1017C000551F661F771F0A94D2F740952423019670
:1017D0008830910571F7209350011EC2823009F0C4
:1017E00022C180913D06882309F40CC180914406F2
:1017F000882329F08091500181608093500180916D
:101800004306882329F08091500182608093500123
:1018100080914206882329F0809150018460809352
:10182000500180914106882329F080915001886001
:101830008093500180915001982F906190935001B6
:1018400090913B06992319F0806380935001809119
:101850003C06882329F080915001806480935001D8
:1018600080914006882329F0809150018068809300
:10187000500180910606853410F491E024C09091C7
:1018800008062BEB290F2D3018F4F0924F011DC0E4
:101890002EEA290F243110F493E015C02AE9290F0C
:1018A000253310F494E00FC025E6290F243110F4FD
:1018B00095E009C021E5290F2D3010F496E003C012
:1018C0009C3B18F097E090934F0190910706953458
:1018D00010F491E01FC02BEB290F293018F4F0927F
:1018E0004E011AC022EB290F283110F493E012C0E8
:1018F0002AE9290F253310F494E00CC025E6290FBE
:10190000293110F495E006C0945B983010F496E00D
:1019100001C097E090934E01853410F481E01FC020
:101920009BEB980F9D3018F4F0924D011AC09EEA7F
:10193000980F943110F483E012C09AE9980F953310
:1019400010F484E00CC095E6980F943110F485E013
:1019500006C08F5A8D3010F486E001C087E0809376
:101960004D0180910506853410F481E01FC09BEB8A
:10197000980F993018F4F0924C011AC092EB980F1E
:10198000983110F483E012C09AE9980F953310F45F
:1019900084E00CC095E6980F993110F485E006C0FC
:1019A000845B883010F486E001C087E080934C01AE
:1019B00020914F01277030914E01377080914D0179
:1019C00090914C0197704091500140935101330F19
:1019D000330F330F482F4295440F440F407C232B85
:1019E000242B2093520182FB222720F9809153015E
:1019F000807F990F822B892B8093530181E0809304
:101A00004B010AC180914B01882309F405C18091E3
:101A100005019091060101969093060180930501BE
:101A200010924B01F9C080910306882309F4F0C09D
:101A300080910106811108C01092060110920501E3
:101A400081E080930106E8C02091050130910601F4
:101A50002039E1E03E070CF0D6C0A901440F551F24
:101A6000FA01E20FF31FEF5AFE4F8081809350017D
:101A700080FF03C091E09093440681FF03C091E092
:101A80009093430682FF03C091E09093420683FF48
:101A900003C091E09093410684FF03C091E09093CE
:101AA0003D0685FF03C091E090933B0686FF03C08F
:101AB00091E090933C0687FF03C081E0809340064D
:101AC000FA01E20FF31FEE5AFE4F8081E82FE77014
:101AD0008E2F90E0FC013197E730F105B0F4EC5C1B
:101AE000FF4F0C94B910109208060FC085E401C096
:101AF00082E58093080609C080E8FBCF8EEAF9CF23
:101B0000B092080602C010930806FA01E20FF31F14
:101B1000EE5AFE4F8081869586958695E82FE77070
:101B20008E2F90E0FC013197E730F105B0F4E55CD1
:101B3000FF4F0C94B910109207060FC085E401C046
:101B40008EE48093070609C080E8FBCF83EBF9CFD2
:101B5000B092070602C010930706DA01A20FB31F66
:101B6000AE5ABE4FEC919E2F929596959695937096
:101B700011968C918170880F880FE82FE92B8E2F9A
:101B800090E0FC013197E730F105B0F4EE5BFF4FD8
:101B90000C94B910109206060FC085E401C082E5CE
:101BA0008093060609C080E8FBCF8EEAF9CFB09299
:101BB000060602C010930606240F351FF901ED5AE0
:101BC000FE4F80818695E82FE7708E2F90E0FC0114
:101BD0003197E730F10500F5E75BFF4F0C94B91042
:101BE0001092050619C085E401C08EE480930506B5
:101BF00013C080E8FBCF83EBF9CFB09205060CC091
:101C00001093050609C0109206011092050104C048
:101C100010920206109201068091140190914406E0
:101C200090FB80F99091430690FB81F990914206D8
:101C300090FB82F99091410690FB83F98093140107
:101C40009091150120913D0620FB94F99093150188
:101C500090913C0191110AC090913B01911106C0F5
:101C60009091400690FB84F98093140180911501B6
:101C700090913E0190FB80F990913D0190FB81F99C
:101C800090913F0690FB82F990913E0690FB83F97C
:101C90008093150120910A06253618F480913C06A0
:101CA00001C081E0819580931B01909109069536D2
:101CB00018F480913B0601C081E0819580931A0160
:101CC000253618F420913C0601C021E080911501D1
:101CD00020FB85F980931501953618F490913B0609
:101CE00001C091E08091150190FB86F98093150168
:101CF0008091080680931601809107068093170152
:101D00008091060680931801809105068093190141
:101D10008091E70690913A0190FB83F98093E70662
:101D20008091140185FD35C00FB7F89424E131E0AE
:101D30004AE051E067E071E08091E4060E94D90238
:101D4000813051F424E131E04AE051E067E071E094
:101D50008091E4060E94D902823051F424E131E0FE
:101D60004AE051E067E071E08091E4060E94D90208
:101D70000FBF833021F480910901877F05C0843033
:101D800031F48091090188608093090102C0853097
:101D900091F380914506882309F490C0A0904406F1
:101DA000C0904306E0904206009141062091400613
:101DB00040E060E080E00E94BD03A0903E01C09042
:101DC0003D01E0903F0600913E0620913D06409186
:101DD0003C0660913B0681E00E94BD03A090330663
:101DE000C0903406E0903506009136062091370603
:101DF000409138066091390680913A060E94BD03F1
:101E0000A0902B06C0902C06E0902D0600912E0687
:101E100020912F0640913006609131068091320664
:101E20000E94BD03A0902306C0902406E0902506E2
:101E300000912606209127064091280660912906E8
:101E400080912A060E94BD03A0901B06C0901C062C
:101E5000E0901D0600911E0620911F06409120066D
:101E600060912106809122060E94BD03A090130676
:101E7000C0901406E09015060091160620911706F2
:101E8000409118066091190680911A060E94BD03C0
:101E9000A0900B06C0900C06E0900D0600910E0677
:101EA00020910F0640911006609111068091120654
:101EB0000E94BD038AE090E00E9436050E94A401C2
:101EC0000C94BA06CF93E7E4F6E01382128288EE10
:101ED00093E0A0E0B0E084839583A683B78384E297
:101EE00091E09183808385EC90E09587848784ECF2
:101EF00090E09787868780EC90E0918B808B81ECD7
:101F000090E0938B828B82EC90E0958B848B86ECB7
:101F100090E0978B868B118E128E138E148E83E633
:101F200090E00E947C03C82F84E690E00E947C032E
:101F3000C093FA068093E406CF9108958F929F9202
:101F4000AF92BF92CF92DF92EF92FF92CF93DF9347
:101F5000EC01688179818A819B8161157105810518
:101F6000910521F464E279ED8BE597E02DE133EF03
:101F700041E050E00E94561049015A019B01AC011A
:101F8000A7EAB1E40E9475106B017C01ACEEB4EFDE
:101F9000A50194010E948310DC01CB018C0D9D1DD5
:101FA000AE1DBF1DB7FF03C00197A109B0488883CC
:101FB0009983AA83BB83BC01CD019F77DF91CF9129
:101FC000FF90EF90DF90CF90BF90AF909F908F9059
:101FD00008958F929F92AF92BF92CF92DF92EF922D
:101FE000FF9260911C0170911D0180911E019091E2
:101FF0001F01611571058105910521F464E279EDF8
:102000008BE597E02DE133EF41E050E00E94561060
:1020100049015A019B01AC01A7EAB1E40E94751085
:102020006B017C01ACEEB4EFA50194010E9483101A
:10203000DC01CB018C0D9D1DAE1DBF1DB7FF03C084
:102040000197A109B04880931C0190931D01A093B2
:102050001E01B0931F01BC01CD019F77FF90EF904F
:10206000DF90CF90BF90AF909F908F900895609336
:102070001C0170931D0180931E0190931F01089510
:10208000F999FECF92BD81BDF89A992780B5089540
:10209000262FF999FECF1FBA92BD81BD20BD0FB684
:1020A000F894FA9AF99A0FBE01960895052E97FBB7
:1020B0001EF400940E946D1057FD07D00E948810F6
:1020C00007FC03D04EF40C946D105095409530955C
:1020D00021953F4F4F4F5F4F089590958095709594
:1020E00061957F4F8F4F9F4F08950E94AA10A59F23
:1020F000900DB49F900DA49F800D911D1124089503
:10210000B7FF0C9475100E947510821B930B0895F5
:10211000A1E21A2EAA1BBB1BFD010DC0AA1FBB1FEB
:10212000EE1FFF1FA217B307E407F50720F0A21B5D
:10213000B30BE40BF50B661F771F881F991F1A94CA
:1021400069F760957095809590959B01AC01BD01F4
:10215000CF010895A29FB001B39FC001A39F700D4E
:10216000811D1124911DB29F700D811D1124911D9F
:102170000895EE0FFF1F0590F491E02D099481E082
:0C21800090E0F8940C94C410F894FFCF89
:10218C001001492323900109000300808080808086
:10219C001F1F00000080808080801F1F0100000036
:1021AC000000000035019E00CC008201FD00DB0028
:0621BC00EF000D0A000017
:00000001FF
