:100000000C947E000C94A6000C94A6000C94A60000
:100010000C94A6000C94A6000C94A6000C94A600C8
:100020000C94A6000C94A6000C94A6000C948803D3
:100030000C94A6000C94A6000C94A6000C94A600A8
:100040000C94B6050C94A6000C9466020C94400225
:100050000C94A6000C94A6000C94A6000C94A60088
:100060000C94A6000C94A600D90DDC0DDE0DE20D5B
:10007000E40DE60DE80D000E030E050E090E0B0E45
:100080000D0E0F0E2E0E310E330E370E390E3B0EA7
:100090003D0E530E560E580E5C0E5E0E600E620E36
:1000A00000000000230026002900000000080002D4
:1000B0000100000304070000000000000000000031
:1000C0000000250028002B0000000000240027006D
:1000D0002A000404040404040404020202020202CA
:1000E00003030303030301020408102040800102FC
:1000F00004081020010204081020B60F11241FBEAE
:10010000CFEFD8E0DEBFCDBF11E0A0E0B1E0E4E387
:10011000F2E202C005900D92A633B107D9F727E0AD
:10012000A6E3B1E001C01D92A330B207E1F710E0F1
:10013000CEE7D0E004C02197FE010E940D11CD371B
:10014000D107C9F70E9400060C9418110C94000006
:10015000CF92DF92EF92FF920F931F93CF93DF9393
:100160006C017A018B01C0E0D0E0CE15DF0581F093
:10017000D8016D918D01D601ED91FC910190F08136
:10018000E02DC6010995892B11F02196EECF7E0155
:10019000C701DF91CF911F910F91FF90EF90DF90FA
:1001A000CF900895089580E090E00895FC01538D6C
:1001B000448D252F30E0842F90E0821B930B541741
:1001C00010F0CF96089501970895FC01918D828DCE
:1001D000981761F0828DDF01A80FB11D5D968C919B
:1001E000928D9F5F9F73928F90E008958FEF9FEFA6
:1001F0000895FC01918D828D981731F0828DE80F62
:10020000F11D858D90E008958FEF9FEF0895FC011B
:10021000918D228D892F90E0805C9F4F821B9109E8
:100220008F739927089586E496E00E94070121E0E4
:10023000892B09F420E0822F0895FC01848DDF01D1
:10024000A80FB11DA35ABF4F2C91848D90E0019649
:100250008F739927848FA689B7892C93A089B18938
:100260008C91837080648C93938D848D981306C0D9
:100270000288F389E02D80818F7D80830895EF923D
:10028000FF920F931F93CF93DF93EC0181E0888F50
:100290009B8D8C8D981305C0E889F989808185FD37
:1002A00026C0F62E0B8D10E00F5F1F4F0F73112726
:1002B000E02E8C8DE8120CC00FB607FCFACFE8894F
:1002C000F989808185FFF5CFCE010E941D01F1CF14
:1002D0008B8DFE01E80FF11DE35AFF4FF0829FB7AF
:1002E000F8940B8FEA89FB89808180620AC09FB7EE
:1002F000F894EE89FF896083E889F98980818370A9
:10030000806480839FBF81E090E0DF91CF911F9157
:100310000F91FF90EF900895CF93DF93EC01888DBC
:100320008823C9F0EA89FB89808185FD05C0A889F9
:10033000B9898C9186FD0FC00FB607FCF5CF80817F
:1003400085FFF2CFA889B9898C9185FFEDCFCE01C9
:100350000E941D01E7CFDF91CF91089580E090E0EA
:10036000892B29F00E94130181110C94000008953B
:10037000EF920F931F93F901DA013C912E2D2095F6
:1003800032233C9330813E293083FC01D80198E030
:1003900080E030E020E04C914E2189F02A95D9F799
:1003A00020E04C914E2159F02A95D9F720E84C9144
:1003B0004E2129F02A95D9F73A9561F717C047E001
:1003C0004A95F1F7000031E0550F4C914E2109F0AC
:1003D00051609A9529F45193839598E0681731F00C
:1003E00020E84C914E2111F72A95D9F71F910F91D2
:1003F000EF9008950F931F93F9012081202B208304
:10040000DA012C91202B2C9320814081202B30E08D
:1004100010E00095109550E004231523DC015D9158
:1004200048E00083550F40F474E07A95F1F720839B
:100430007AE07A95F1F705C07EE07A95F1F7000051
:1004400020834A9529F073E07A95F1F70000E9CF0F
:100450006A9529F071E07A95F1F70000E0CF72E03B
:100460007A95F1F700000000008374E07A95F1F7C7
:100470000000000020831F910F9108950E94131126
:100480001F920F920FB60F9211242F933F934F9309
:100490005F936F937F938F939F93AF93BF93EF93EC
:1004A000FF9386E496E00E941D01FF91EF91BF91BA
:1004B000AF919F918F917F916F915F914F913F91FC
:1004C0002F910F900FBE0F901F9018951F920F92B3
:1004D0000FB60F9211242F938F939F93EF93FF9357
:1004E000E0915606F09157068081E0915C06F0910C
:1004F0005D0682FD12C0908180915F068F5F8F73D1
:1005000020916006821751F0E0915F06F0E0EA5B0F
:10051000F94F958F80935F0601C08081FF91EF9125
:100520009F918F912F910F900FBE0F901F90189554
:100530007F928F929F92AF92BF92CF92DF92EF9273
:10054000FF920F931F93CF93DF93DB01642F590129
:10055000F02E282F30E0F901EA51FF4FE490F90125
:10056000EE52FF4F249130E0220F331FF901E85380
:10057000FF4FC591D491F901E254FF4FC590D4903B
:10058000F901E056FF4F859094907FB6F8940E2DB8
:100590009601AE01CD010E94FA0184019601AE01DF
:1005A0006F2DC5010E94B8017FBEDF91CF911F91D1
:1005B0000F91FF90EF90DF90CF90BF90AF909F9002
:1005C0008F907F9008953F924F925F926F927F92AB
:1005D0008F929F92AF92BF92CF92DF92EF92FF9253
:1005E0000F931F93CF93DF9300D01F92CDB7DEB749
:1005F0003B014A01290190E0FC01EA51FF4FF490D0
:10060000FC01EE52FF4F849190E0880F991FFC018E
:10061000E853FF4FC590D490FC01E254FF4FA590E2
:10062000B490FC01E056FF4F059114913FB6F89449
:1006300019821A821B82EF2C9501A60163E0CE017C
:1006400001960E94B8018130B9F48981811109C0F5
:100650000F2D9501A60163E0C3010E94FA0181E01C
:100660002BC0813411F50F2D9501A6016AE0C4015C
:100670000E94FA0182E020C08330B9F4898180347D
:10068000A1F48A81833089F40F2D9501A60168E0D9
:10069000C2010E94FA018B818370813041F0823067
:1006A00041F0833041F486E007C080E005C084E07B
:1006B00003C085E001C083E03FBE0F900F900F9014
:1006C000DF91CF911F910F91FF90EF90DF90CF902E
:1006D000BF90AF909F908F907F906F905F904F9062
:1006E0003F9008951F93CF93DF93EC01162F0E9444
:1006F0009410181739F0612FCE01DF91CF911F911F
:100700000C949C10DF91CF911F9108950C9494103C
:100710001F920F920FB60F9211242F938F939F93D6
:100720009091370181E089278093370180910501FD
:1007300090910601813921E092072CF40196909363
:1007400006018093050180910301843218F48F5FC4
:100750008093030180910401843218F48F5F8093A9
:100760000401809102018B3518F48F5F80930201A0
:1007700080910001803118F48F5F809300019F9178
:100780008F912F910F900FBE0F901F901895AF92E1
:10079000CF92EF920F931F93CF93DF93162FD42F07
:1007A000C22F811103C080E090E002C081E390E09D
:1007B0000E944005111103C080E090E002C081E377
:1007C00090E00E944005D11103C080E090E002C09B
:1007D00081E390E00E944005C11103C080E090E0F9
:1007E00002C081E390E00E944005011103C080E057
:1007F00090E002C081E390E00E944005E11003C058
:1008000080E090E002C081E390E00E944005C110CA
:1008100003C080E090E002C081E390E00E944005C8
:10082000A11003C080E090E002C081E390E0DF917E
:10083000CF911F910F91EF90CF90AF900C94400506
:1008400080910101882369F080913D01811104C0EC
:1008500080913E01882329F010920201109201013B
:1008600008958091020196EF980F993020F59091AC
:100870003C01992321F0909136019923C1F0909188
:100880003B01992321F090913601911110C0909174
:100890003901992321F090913601911108C090916E
:1008A0003801992341F090913601992321F081E09C
:1008B00080933A01089594EE980F993000F5909145
:1008C0003C01923020F090913601992381F3909170
:1008D0003B01923020F0909136019111E8CF909138
:1008E0003901923020F0909136019111E0CF909132
:1008F0003801923020F0909136019111D8CF92EDCD
:10090000980F993000F590913C01933020F0909130
:100910003601992361F290913B01933020F0909140
:1009200036019111C4CF90913901933020F090910C
:1009300036019111BCCF90913801933020F0909105
:1009400036019111B4CF90EC980F993008F5909141
:100950003C01943028F090913601992309F4A7CFF7
:1009600090913B01943020F09091360191119FCFEE
:1009700090913901943020F090913601911197CFE8
:1009800090913801943020F09091360191118FCFE1
:100990008255893008F580913C01853028F080919E
:1009A0003601882309F483CF80913B01853020F004
:1009B0008091360181117BCF80913901853020F003
:1009C00080913601811173CF80913801853020F0FC
:1009D0008091360181116BCF10923A0108958F9268
:1009E0009F92AF92BF920F931F93CF93DF93CDB798
:1009F000DEB7A1970FB6F894DEBF0FBECDBF19A228
:100A0000423008F44AE08E010F5D1F4F842E912C76
:100A1000A12CB12CA50194010E94DC10E62FB90194
:100A2000CA0101501109EA3014F4E05D01C0E95C2B
:100A3000D801EC93232B242B252B61F701151105ED
:100A400071F0F80101900020E9F73197AF01401BE8
:100A5000510BB80186E496E00E94A80002C080E035
:100A600090E0A1960FB6F894DEBF0FBECDBFDF9128
:100A7000CF911F910F91BF90AF909F908F9008954D
:100A8000682F86E496E00C943F01CF93DF9390E0CB
:100A9000FC01EA51FF4F2491FC01EE52FF4F84917B
:100AA0008823C1F090E0880F991FFC01E853FF4FA5
:100AB000C591D491FC01E254FF4FA591B4919FB729
:100AC000F8948881322F309583238883EC91E22B30
:100AD000EC939FBFDF91CF91089590E0FC01E65524
:100AE000FF4F2491FC01EA51FF4F3491FC01EE527B
:100AF000FF4FE491EE23B9F1222339F1233091F035
:100B000038F42130A9F0223001F584B58F7D12C070
:100B1000273091F02830A1F02430B9F48091800082
:100B20008F7D03C0809180008F77809380000DC0FF
:100B300084B58F7784BD09C08091B0008F7703C0E2
:100B40008091B0008F7D8093B000F0E0EE0FFF1F2A
:100B5000E056FF4FA591B491EC91E32381E090E042
:100B600021F480E0089580E090E008951F920F92B4
:100B70000FB60F9211242F933F938F939F93AF93B0
:100B8000BF938091FF0690910007A0910107B0915B
:100B900002073091FE0623E0230F2D3720F4019643
:100BA000A11DB11D05C026E8230F0296A11DB11D90
:100BB0002093FE068093FF0690930007A093010701
:100BC000B09302078091FA069091FB06A091FC0673
:100BD000B091FD060196A11DB11D8093FA06909378
:100BE000FB06A093FC06B093FD06BF91AF919F91C9
:100BF0008F913F912F910F900FBE0F901F901895DE
:100C0000CF93DF93CDB7DEB76F970FB6F894DEBF03
:100C10000FBECDBF789484B5826084BD84B58160F9
:100C200084BD85B5826085BD85B5816085BD8091B7
:100C30006E00816080936E0010928100809181002F
:100C40008260809381008091810081608093810027
:100C5000809180008160809380008091B1008460E9
:100C60008093B1008091B00081608093B00080914A
:100C70007A00846080937A0080917A008260809309
:100C80007A0080917A00816080937A0080917A0066
:100C9000806880937A001092C100E0915606F0912E
:100CA000570682E08083E0915206F091530610824D
:100CB000E0915406F091550680E1808310925E0623
:100CC000E0915A06F0915B0686E08083E091580639
:100CD000F0915906808180618083E0915806F091FF
:100CE0005906808188608083E0915806F09159060A
:100CF000808180688083E0915806F0915906808158
:100D00008F7D8083F8941092800010928100109261
:100D100085001092840082E194E090938900809392
:100D2000880080918100886080938100809181009B
:100D300084608093810080916F00826080936F0057
:100D4000789484E00E94450585E00E94450562E0B4
:100D500083E690E00E94720363E084E690E00E94E4
:100D6000720380E090E00E948603823028F061E008
:100D700080E090E00E94720381E090E00E94860390
:100D8000823028F060E081E090E00E94720382E00F
:100D900090E00E948603823028F060E082E090E0DC
:100DA0000E94720380E090E00E94860391E081112E
:100DB00001C090E09093000681E090E00E948603DD
:100DC00091E0811101C090E0909345068FEF90E093
:100DD0000E948603882341F060E08FEF90E00E943C
:100DE0007203E0E0F0E00995FF24FA94412C512CC5
:100DF000320153948091E4069091E506892BC1F06D
:100E00009091E60693FB992790F98091F906F0E41A
:100E1000F98B23E02A8B9B8B08E021EF36E043E03F
:100E2000BE016F5E7F4F0E9498028830F9F022C0A9
:100E30008091F906198A03E024EE36E041E0BE0114
:100E40006F5E7F4F0E9498028330A1F48091F90673
:100E500021E4298B0AE027EE36E041E0BE016F5E17
:100E60007F4F0E9498028A3059F20AC08091F106A1
:100E700085FF06C01092E4061092E5061092E60681
:100E80008091E6068F8F88E0E1EFF6E0DE011196B3
:100E900001900D928A95E1F788E0FE013196DE011E
:100EA000199601900D928A95E1F788E0FE01399636
:100EB000DE01519601900D928A95E1F73A8430FA5D
:100EC000222420F831FA992490F8CB84DC84ED8434
:100ED0000E85AF84B8888989982F9170892E909358
:100EE000440691E0E82FE270EA8F81FF90E0909352
:100EF000430691E0F82FF470FB8F82FF90E090930F
:100F0000420691E0282F28702C8F83FF90E0909369
:100F100041061A8920FA10F990FA11F91A8B91E01A
:100F2000E12FE071ED8F14FF90E090933D0691E08A
:100F3000F82FF071F98F84FF90E09093400681E0E4
:100F4000212F28702E8F13FF80E080933E0684E0CF
:100F50000E946D0521E030E0892B11F020E030E0A7
:100F6000C901820D911D1C0181E02114310409F495
:100F700080E080933E0185E00E946D05A1E0B0E035
:100F8000892B11F0A0E0B0E0A90DB11D81E0109710
:100F900009F480E080933D0181E0612F647012FFCD
:100FA00080E080933F0616FB882780F980933B06FC
:100FB00015FB882780F980933C06A0920906B09221
:100FC0000A06C0920806D0920706E0920606009331
:100FD0000506E3E3F6E080E090E04C2D50E09A0156
:100FE000082E02C0359527950A94E2F721702193C7
:100FF00001968830910599F7EBE2F6E080E090E009
:101000004D2D50E09A01082E02C0359527950A947F
:10101000E2F72170219301968830910599F7E3E278
:10102000F6E080E090E04E2D50E09A01082E02C0DC
:10103000359527950A94E2F721702193019688301F
:10104000910599F7EBE1F6E080E090E0402F50E069
:101050009A01082E02C0359527950A94E2F721706F
:10106000219301968830910599F7E3E1F6E080E05D
:1010700090E04A2D50E09A01082E02C03595279540
:101080000A94E2F72170219301968830910599F72F
:10109000EBE0F6E080E090E04B2D50E09A01082E66
:1010A00002C0359527950A94E2F7217021930196A5
:1010B0008830910599F79F8D93FB882780F980935D
:1010C0003A0181102CC0EA8DE11129C0FB8DF1118C
:1010D00026C02C8D211123C08D8D811120C0998DAA
:1010E00091111DC0EE8DE1111AC02328C1F4AB2B64
:1010F000B1F41476A1F4FBE6FA1588F0FB1578F04C
:1011000089E98C0D833358F489E98D0D833338F4E4
:1011100089E98E0D833318F40756033348F0109293
:10112000FF051092000110924501109248011BC06A
:10113000809100018031B9F48091090183FF13C0CF
:101140008091FF0581110FC080913C01811108C081
:1011500080913B01811104C080913801882319F0EE
:1011600081E08093FF0580911C018823D1F06623E4
:1011700029F06091450681E090E007C0298D222387
:1011800039F06091000680E090E00E94720309C08F
:1011900080910501909106018039914014F01092E0
:1011A0001C0180914506811199C510913E011123C2
:1011B00071F18091420181112AC080913C018F5FC1
:1011C00080933C01833049F4809108068093440168
:1011D00080910706809343016FC0843019F40E9408
:1011E0003D106AC0853069F48091080688568133C5
:1011F00008F062C0809107068856813308F460C009
:101200005BC0863008F45CC010923C0155C08091F0
:101210003D01882361F180914101811128C08091B5
:101220000006811116C080913B06811104C0809197
:101230000906853670F010923B01809139018F5F6D
:1012400080933901109238018530B0F11092390144
:1012500033C080913B018F5F80933B011092390135
:1012600010923801843040F110923B0125C08091EA
:101270003F06882389F08091400181110DC0809143
:101280000406813019F41092040603C081E08093B3
:1012900004061092030610C080913E06882361F078
:1012A00080913F01811108C01092040690910306BD
:1012B00081E089278093030610913E01112321F0DC
:1012C00080914201882341F0809102018B3540F4E6
:1012D00080913601811104C0109236010E942004D1
:1012E00000913D01002321F080914101882341F0CC
:1012F000809102018B3548F480913601882329F0D2
:1013000081E0809336010E942004011105C0111173
:1013100003C081E08093010180914006882361F041
:1013200010923C0110923B01109239011092380149
:10133000109204061092030610934201009341019B
:1013400080913F068093400180913E0680933F014B
:1013500080913B01843009F443C080913C0181308D
:1013600091F48091FF05811104C0809100068823CB
:10137000B9F180913701882319F01092080630C026
:10138000F09208062DC08230C9F48091FF058111CA
:1013900004C080910006882319F10E943D10A3012A
:1013A00092010E94AA10609308060E943D10A301BA
:1013B00092010E94AA106093070612C0833081F444
:1013C0008091FF05811104C080910006882341F0BF
:1013D0008091440180930806809143018093070621
:1013E00080913B01813071F48091FF05811105C02E
:1013F00080910006882309F41DC1809137018093F4
:101400003B0618C1823061F48091FF05811105C04F
:1014100080910006882309F40DC1809137012CC00A
:101420008330A9F48091FF05811105C080910006E9
:10143000882309F4FFC080E880930806109207060D
:1014400080913701882309F4F5C081E023C08091A1
:101450003901813011F580933B06F0920906909195
:10146000450191110CC08091090183FFE3C01092E6
:10147000030181E08093450180934106DBC0909198
:1014800003019B3008F4D6C0F09207068093410612
:101490008091370180934306CDC08230F9F481E01A
:1014A00080933B06F09209068091450181110AC0A4
:1014B0008091090183FFBEC01092030181E08093F7
:1014C0004501B8C0809103018B3008F4B3C0F0929D
:1014D000070680913701809343062AC0833099F430
:1014E00081E080933B06F0920906809145018823B4
:1014F000F9F2809103018B3008F49CC08091370190
:1015000080933D0697C08430B1F481E080933B0620
:10151000F092090690914501992309F4A4CF909186
:1015200003019B3008F486C0809341068091370107
:10153000809344067FC080913801813009F07AC0E1
:101540001092090610923B0610920A0610923C0671
:101550008091FF05882319F18091090183FF1FC045
:101560001092040181E0809348010E943D1022E026
:1015700030E040E050E00E94AA1021E0672B682B89
:10158000692B09F420E0209347010E943D1024E0DC
:1015900030E040E050E00E94AA1060934601809144
:1015A0004801882309F446C0809104018F3008F077
:1015B00041C06091FF0570E080E090E04AE00E9449
:1015C000EF0442E050E063E371E086E496E00E94BD
:1015D000A80080914701882329F0F092090691E044
:1015E00090933B0690914601911108C0882319F011
:1015F000109208061FC0809137010AC0913059F43B
:10160000882319F0F092080615C080913701819562
:10161000809308060FC020913701923029F4811180
:1016200003C02093440606C0222321F0811102C08A
:10163000F092070680910406813009F039C190913B
:10164000020691110BC010920601109205018093C1
:10165000020620914E0180E090E015C18091440681
:10166000882329F080914E01816080934E01809102
:101670004306882329F080914E01826080934E01B9
:1016800080914206882329F080914E0184608093E6
:101690004E0180914106882329F080914E01886097
:1016A00080934E0180913D06882329F080914E0160
:1016B000806180934E0180913B06882329F08091C0
:1016C0004E01806280934E0180913C06882329F070
:1016D00080914E01806480934E0180914006882362
:1016E00029F080914E01806880934E01809106061A
:1016F000853410F491E023C0909108062BEB290F5C
:101700002D3010F492E01BC02EEA290F243110F482
:1017100093E015C02AE9290F253310F494E00FC097
:1017200025E6290F243110F495E009C021E5290FA1
:101730002D3010F496E003C09C3B18F097E0909396
:101740004D0190910706953410F491E01EC02BEBEB
:10175000290F293010F492E018C022EB290F28310C
:1017600010F493E012C02AE9290F253310F494E015
:101770000CC025E6290F293110F495E006C0945BD2
:10178000983010F496E001C097E090934C018534B6
:1017900010F481E01EC09BEB980F9D3010F482E0A6
:1017A00018C09EEA980F943110F483E012C09AE9B1
:1017B000980F953310F484E00CC095E6980F94319F
:1017C00010F485E006C08F5A8D3010F486E001C019
:1017D00087E080934B0180910506853410F481E009
:1017E0001EC09BEB980F993010F482E018C092EB6A
:1017F000980F983110F483E012C09AE9980F95334E
:1018000010F484E00CC095E6980F993110F485E04F
:1018100006C0845B883010F486E001C087E08093C6
:101820004A01609105017091060180914D01877018
:1018300090914C01977040914B0120914A01277083
:10184000FB01EE0FFF1FE60FF71FDF01A15BBE4F8D
:1018500030914E013C93E05BFE4F990F990F990F29
:10186000342F3295330F330F307C892B382B308354
:1018700042FB992790F93181307F220F832F892BEA
:10188000822B8183E6CE41E050E060E070E0082EDC
:1018900004C0440F551F661F771F0A94D2F7409566
:1018A000242301968830910571F720934E0116C2CA
:1018B000823009F01EC180913D06882309F408C1D9
:1018C00080914406882329F080914E0181608093A5
:1018D0004E0180914306882329F080914E01826059
:1018E00080934E0180914206882329F080914E0119
:1018F000846080934E0180914106882329F0809175
:101900004E01886080934E0180914E01982F906126
:1019100090934E0190913B06992319F08063809338
:101920004E0180913C06882329F080914E0180640D
:1019300080934E0180914006882329F080914E01CA
:10194000806880934E0180910606853410F491E002
:1019500023C0909108062BEB290F2D3010F492E054
:101960001BC02EEA290F243110F493E015C02AE998
:10197000290F253310F494E00FC025E6290F2431F8
:1019800010F495E009C021E5290F2D3010F496E000
:1019900003C09C3B18F097E090934D01909107068F
:1019A000953410F491E01EC02BEB290F293010F470
:1019B00092E018C022EB290F283110F493E012C0F6
:1019C0002AE9290F253310F494E00CC025E6290FED
:1019D000293110F495E006C0945B983010F496E03D
:1019E00001C097E090934C01853410F481E01EC053
:1019F0009BEB980F9D3010F482E018C09EEA980F80
:101A0000943110F483E012C09AE9980F953310F4E2
:101A100084E00CC095E6980F943110F485E006C080
:101A20008F5A8D3010F486E001C087E080934B011F
:101A300080910506853410F481E01EC09BEB980F61
:101A4000993010F482E018C092EB980F983110F49E
:101A500083E012C09AE9980F953310F484E00CC02B
:101A600095E6980F993110F485E006C0845B8830C4
:101A700010F486E001C087E080934A0120914D0177
:101A8000277030914C01377080914B0190914A0141
:101A9000977040914E0140934F01330F330F330F36
:101AA000482F4295440F440F407C232B242B209336
:101AB000500182FB222720F980915101807F990FEC
:101AC000822B892B8093510181E08093490106C1CB
:101AD00080914901882309F401C180910501909109
:101AE0000601019690930601809305011092490129
:101AF000F5C080910306882309F4ECC080910106AB
:101B0000811108C0109206011092050181E08093B6
:101B10000106E4C020910501309106012039F1E071
:101B20003F070CF0D2C0A901440F551FFA01E20F84
:101B3000F31FE15BFE4F808180934E0180FF03C065
:101B400091E09093440681FF03C091E09093430697
:101B500082FF03C091E09093420683FF03C091E0AF
:101B60009093410684FF03C091E090933D0685FF6A
:101B700003C091E090933B0686FF03C091E09093F1
:101B80003C0687FF03C081E080934006FA01E20F24
:101B9000F31FE05BFE4F8081E82FE7708E2F90E00F
:101BA000FC013197E730F105A8F4EC5CFF4F0C9491
:101BB0000D11109208060EC085E401C082E58093E5
:101BC000080608C080E8FBCF8EEAF9CF8BEBF7CF91
:101BD000F0920806FA01E20FF31FE05BFE4F8081EE
:101BE000869586958695E82FE7708E2F90E0FC010C
:101BF0003197E730F105A8F4E55CFF4F0C940D1127
:101C0000109207060EC085E401C08EE4809307069B
:101C100008C080E8FBCF83EBF9CF8BEBF7CFF092D6
:101C20000706DA01A20FB31FA05BBE4FEC919E2FF7
:101C3000929596959695937011968C918170880FD8
:101C4000880FE82FE92B8E2F90E0FC013197E730C9
:101C5000F105A8F4EE5BFF4F0C940D1110920606EF
:101C60000EC085E401C082E58093060608C080E8C6
:101C7000FBCF8EEAF9CF8BEBF7CFF0920606240F5D
:101C8000351FF901EF5AFE4F80818695E82FE770E6
:101C90008E2F90E0FC013197E730F105F8F4E75B17
:101CA000FF4F0C940D111092050618C085E401C079
:101CB0008EE48093050612C080E8FBCF83EBF9CF5A
:101CC0008BEBF7CFF092050609C010920601109237
:101CD000050104C0109202061092010680911401C1
:101CE0009091440690FB80F99091430690FB81F916
:101CF0009091420690FB82F99091410690FB83F906
:101D0000809314019091150120913D0620FB94F9D8
:101D10009093150190913C0191110AC090913B0163
:101D2000911106C09091400690FB84F980931401B4
:101D300080911501887F877F8093150120910A0685
:101D4000253618F480913C0601C081E0819580938E
:101D50001B0190910906953618F480913B0601C04D
:101D600081E0819580931A01253618F420913C0674
:101D700001C021E08091150120FB85F980931501B8
:101D8000953618F490913B0601C091E080911501C1
:101D900090FB86F9809315018091080680931601C7
:101DA00080910706809317018091060680931801A1
:101DB00080910506809319018091E60690913A0181
:101DC00090FB83F98093E6068091140185FD35C070
:101DD0001FB7F89424E131E04AE051E067E071E098
:101DE0008091E3060E94E302813051F424E131E066
:101DF0004AE051E067E071E08091E3060E94E3026F
:101E0000823051F424E131E04AE051E067E071E0D2
:101E10008091E3060E94E3021FBF833021F480918A
:101E20000901877F05C0843031F480910901886001
:101E30008093090102C0853091F380914506882383
:101E400009F490C0A0904406C0904306E09042067A
:101E5000009141062091400640E060E080E00E9451
:101E6000C703A0903E01C0903D01E0903F06009165
:101E70003E0620913D0640913C0660913B0681E084
:101E80000E94C703A0903306C0903406E090350648
:101E90000091360620913706409138066091390648
:101EA00080913A060E94C703A0902B06C0902C0692
:101EB000E0902D0600912E0620912F0640913006CD
:101EC00060913106809132060E94C703A0902306DC
:101ED000C0902406E0902506009126062091270652
:101EE000409128066091290680912A060E94C70326
:101EF000A0901B06C0901C06E0901D0600911E06D7
:101F000020911F06409120066091210680912206B3
:101F10000E94C703A0901306C0901406E090150617
:101F20000091160620911706409118066091190637
:101F300080911A060E94C703A0900B06C0900C0661
:101F4000E0900D0600910E0620910F0640911006BC
:101F500060911106809112060E94C7038AE090E00A
:101F60000E9440050E94AE010C94FA06CF93E6E46D
:101F7000F6E01382128288EE93E0A0E0B0E0848362
:101F80009583A683B78385E291E09183808385EC76
:101F900090E09587848784EC90E09787868780EC33
:101FA00090E0918B808B81EC90E0938B828B82EC24
:101FB00090E0958B848B86EC90E0978B868B118ECE
:101FC000128E138E148E83E690E00E948603C82F33
:101FD00084E690E00E948603C093F9068093E306AE
:101FE000CF9108958F929F92AF92BF92CF92DF923E
:101FF000EF92FF92CF93DF93EC01688179818A8120
:102000009B81611571058105910521F464E279EDEB
:102010008BE597E02DE133EF41E050E00E94AA10FC
:1020200049015A019B01AC01A7EAB1E40E94C91021
:102030006B017C01ACEEB4EFA50194010E94D710B6
:10204000DC01CB018C0D9D1DAE1DBF1DB7FF03C074
:102050000197A109B04888839983AA83BB83BC01F7
:10206000CD019F77DF91CF91FF90EF90DF90CF90E0
:10207000BF90AF909F908F9008958F929F92AF9254
:10208000BF92CF92DF92EF92FF9260911D0170910B
:102090001E0180911F01909120016115710581053C
:1020A000910521F464E279ED8BE597E02DE133EFC2
:1020B00041E050E00E94AA1049015A019B01AC0185
:1020C000A7EAB1E40E94C9106B017C01ACEEB4EF49
:1020D000A50194010E94D710DC01CB018C0D9D1D40
:1020E000AE1DBF1DB7FF03C00197A109B048809383
:1020F0001D0190931E01A0931F01B0932001BC010C
:10210000CD019F77FF90EF90DF90CF90BF90AF9081
:102110009F908F90089560931D0170931E0180938E
:102120001F01909320010895F999FECF92BD81BDC2
:10213000F89A992780B50895262FF999FECF1FBAEE
:1021400092BD81BD20BD0FB6F894FA9AF99A0FBEE0
:1021500001960895052E97FB1EF400940E94C1106D
:1021600057FD07D00E94DC1007FC03D04EF40C94FE
:10217000C11050954095309521953F4F4F4F5F4F7F
:10218000089590958095709561957F4F8F4F9F4FE3
:1021900008950E94FE10A59F900DB49F900DA49FDE
:1021A000800D911D11240895B7FF0C94C9100E9451
:1021B000C910821B930B0895A1E21A2EAA1BBB1B08
:1021C000FD010DC0AA1FBB1FEE1FFF1FA217B30703
:1021D000E407F50720F0A21BB30BE40BF50B661F19
:1021E000771F881F991F1A9469F7609570958095DD
:1021F00090959B01AC01BD01CF010895A29FB00154
:10220000B39FC001A39F700D811D1124911DB29F2A
:10221000700D811D1124911D0895EE0FFF1F059073
:10222000F491E02D099481E090E0F8940C94181159
:04223000F894FFCF50
:1022340010014923238601090003008080808080E7
:102244001F1F00000080808080801F1F010100008C
:1022540000000000003F01A800D6008C010701E542
:0622640000F9000D0A0064
:00000001FF
