:100000000C947E000C94A6000C94A6000C94A60000
:100010000C94A6000C94A6000C94A6000C94A600C8
:100020000C94A6000C94A6000C94A6000C947203E9
:100030000C94A6000C94A6000C94A6000C94A600A8
:100040000C9457050C94A6000C9466020C94400284
:100050000C94A6000C94A6000C94A6000C94A60088
:100060000C94A6000C94A600150D180D1A0D1E0D6B
:10007000200D220D240D3C0D3F0D410D450D470D6A
:10008000490D4B0D6A0D6D0D6F0D730D750D770DCF
:10009000790D8F0D920D940D980D9A0D9C0D9E0D5E
:1000A00000000000230026002900000000080002D4
:1000B0000100000304070000000000000000000031
:1000C0000000250028002B0000000000240027006D
:1000D0002A000404040404040404020202020202CA
:1000E00003030303030301020408102040800102FC
:1000F000040810200102040810205D0E11241FBE08
:10010000CFEFD8E0DEBFCDBF11E0A0E0B1E0E0E787
:10011000FFE102C005900D92AA33B107D9F726E09E
:10012000AAE3B1E001C01D92A73DB207E1F710E0DC
:10013000CEE7D0E004C02197FE010E94AB0FCD377F
:10014000D107C9F70E94A1050C94B60F0C940000CA
:10015000CF92DF92EF92FF920F931F93CF93DF9393
:100160006C017A018B01C0E0D0E0CE15DF0581F093
:10017000D8016D918D01D601ED91FC910190F08136
:10018000E02DC6010995892B11F02196EECF7E0155
:10019000C701DF91CF911F910F91FF90EF90DF90FA
:1001A000CF900895089580E090E00895FC01538D6C
:1001B000448D252F30E0842F90E0821B930B541741
:1001C00010F0CF96089501970895FC01918D828DCE
:1001D000981761F0828DDF01A80FB11D5D968C919B
:1001E000928D9F5F9F73928F90E008958FEF9FEFA6
:1001F0000895FC01918D828D981731F0828DE80F62
:10020000F11D858D90E008958FEF9FEF0895FC011B
:10021000918D228D892F90E0805C9F4F821B9109E8
:100220008F73992708958AE196E00E94070121E0E3
:10023000892B09F420E0822F0895FC01848DDF01D1
:10024000A80FB11DA35ABF4F2C91848D90E0019649
:100250008F739927848FA689B7892C93A089B18938
:100260008C91837080648C93938D848D981306C0D9
:100270000288F389E02D80818F7D80830895EF923D
:10028000FF920F931F93CF93DF93EC0181E0888F50
:100290009B8D8C8D981305C0E889F989808185FD37
:1002A00026C0F62E0B8D10E00F5F1F4F0F73112726
:1002B000E02E8C8DE8120CC00FB607FCFACFE8894F
:1002C000F989808185FFF5CFCE010E941D01F1CF14
:1002D0008B8DFE01E80FF11DE35AFF4FF0829FB7AF
:1002E000F8940B8FEA89FB89808180620AC09FB7EE
:1002F000F894EE89FF896083E889F98980818370A9
:10030000806480839FBF81E090E0DF91CF911F9157
:100310000F91FF90EF900895CF93DF93EC01888DBC
:100320008823C9F0EA89FB89808185FD05C0A889F9
:10033000B9898C9186FD0FC00FB607FCF5CF80817F
:1003400085FFF2CFA889B9898C9185FFEDCFCE01C9
:100350000E941D01E7CFDF91CF91089580E090E0EA
:10036000892B29F00E94130181110C94000008953B
:10037000EF920F931F93F901DA013C912E2D2095F6
:1003800032233C9330813E293083FC01D80198E030
:1003900080E030E020E04C914E2189F02A95D9F799
:1003A00020E04C914E2159F02A95D9F720E84C9144
:1003B0004E2129F02A95D9F73A9561F717C047E001
:1003C0004A95F1F7000031E0550F4C914E2109F0AC
:1003D00051609A9529F45193839598E0681731F00C
:1003E00020E84C914E2111F72A95D9F71F910F91D2
:1003F000EF9008950F931F93F9012081202B208304
:10040000DA012C91202B2C9320814081202B30E08D
:1004100010E00095109550E004231523DC015D9158
:1004200048E00083550F40F474E07A95F1F720839B
:100430007AE07A95F1F705C07EE07A95F1F7000051
:1004400020834A9529F073E07A95F1F70000E9CF0F
:100450006A9529F071E07A95F1F70000E0CF72E03B
:100460007A95F1F700000000008374E07A95F1F7C7
:100470000000000020831F910F9108950E94B10F8A
:100480001F920F920FB60F9211242F933F934F9309
:100490005F936F937F938F939F93AF93BF93EF93EC
:1004A000FF938AE196E00E941D01FF91EF91BF91B9
:1004B000AF919F918F917F916F915F914F913F91FC
:1004C0002F910F900FBE0F901F9018951F920F92B3
:1004D0000FB60F9211242F938F939F93EF93FF9357
:1004E000E0912A06F0912B068081E0913006F09190
:1004F000310682FD12C09081809133068F5F8F7329
:1005000020913406821751F0E0913306F0E0E65E68
:10051000F94F958F8093330601C08081FF91EF9151
:100520009F918F912F910F900FBE0F901F90189554
:100530007F928F929F92AF92BF92CF92DF92EF9273
:10054000FF920F931F93CF93DF93DB01642F590129
:10055000F02E282F30E0F901EA51FF4FE490F90125
:10056000EE52FF4F249130E0220F331FF901E85380
:10057000FF4FC591D491F901E254FF4FC590D4903B
:10058000F901E056FF4F859094907FB6F8940E2DB8
:100590009601AE01CD010E94FA0184019601AE01DF
:1005A0006F2DC5010E94B8017FBEDF91CF911F91D1
:1005B0000F91FF90EF90DF90CF90BF90AF909F9002
:1005C0008F907F9008953F924F925F926F927F92AB
:1005D0008F929F92AF92BF92CF92DF92EF92FF9253
:1005E0000F931F93CF93DF9300D01F92CDB7DEB749
:1005F0003B014A01290190E0FC01EA51FF4FF490D0
:10060000FC01EE52FF4F849190E0880F991FFC018E
:10061000E853FF4FC590D490FC01E254FF4FA590E2
:10062000B490FC01E056FF4F059114913FB6F89449
:1006300019821A821B82EF2C9501A60163E0CE017C
:1006400001960E94B8018130B9F48981811109C0F5
:100650000F2D9501A60163E0C3010E94FA0181E01C
:100660002BC0813411F50F2D9501A6016AE0C4015C
:100670000E94FA0182E020C08330B9F4898180347D
:10068000A1F48A81833089F40F2D9501A60168E0D9
:10069000C2010E94FA018B818370813041F0823067
:1006A00041F0833041F486E007C080E005C084E07B
:1006B00003C085E001C083E03FBE0F900F900F9014
:1006C000DF91CF911F910F91FF90EF90DF90CF902E
:1006D000BF90AF909F908F907F906F905F904F9062
:1006E0003F9008951F920F920FB60F9211242F93EF
:1006F0008F939F9390913D0181E0892780933D01E5
:100700008091080190910901813921E092072CF430
:1007100001969093090180930801809104019091C2
:100720000501843291052CF4019690930501809384
:1007300004018091060190910701843291052CF407
:100740000196909307018093060180910101909199
:1007500002018B3591052CF4019690930201809350
:1007600001019F918F912F910F900FBE0F901F90BD
:10077000189580910001882379F080913B018111C7
:1007800004C080913C01882339F01092020110923C
:1007900001011092000108958091010190910201E0
:1007A0009C012A5031092930310520F52091420160
:1007B000222321F020913A012223C1F0209141010E
:1007C000222321F020913A01211110C020913F01F4
:1007D000222321F020913A01211108C020913E01ED
:1007E000222341F020913A01222321F081E08093DD
:1007F000400108959C012C5131092930310500F543
:1008000020914201223020F020913A01222371F3FD
:1008100020914101223020F020913A012111E6CFB0
:1008200020913F01223020F020913A012111DECFAA
:1008300020913E01223020F020913A012111D6CFA3
:100840009C012E5231092930310500F520914201D9
:10085000233020F020913A01222341F220914101DE
:10086000233020F020913A012111C0CF20913F0187
:10087000233020F020913A012111B8CF20913E0180
:10088000233020F020913A012111B0CF9C01205457
:1008900031092930310508F520914201243028F032
:1008A00020913A01222309F4A1CF20914101243063
:1008B00020F020913A01211199CF20913F0124305D
:1008C00020F020913A01211191CF20913E01243056
:1008D00020F020913A01211189CF82559109099781
:1008E00008F580914201853028F080913A018823F3
:1008F00009F47CCF80914101853020F080913A014C
:10090000811174CF80913F01853020F080913A01B0
:1009100081116CCF80913E01853020F080913A01A9
:10092000811164CF1092400108958F929F92AF92EF
:10093000BF920F931F93CF93DF93CDB7DEB7A197ED
:100940000FB6F894DEBF0FBECDBF19A2423008F437
:100950004AE08E010F5D1F4F842E912CA12CB12CEB
:10096000A50194010E947A0FE62FB901CA01015036
:100970001109EA3014F4E05D01C0E95CD801EC93A0
:10098000232B242B252B61F70115110571F0F8019C
:1009900001900020E9F73197AF01401B510BB801DE
:1009A0008AE196E00E94A80002C080E090E0A19653
:1009B0000FB6F894DEBF0FBECDBFDF91CF911F9170
:1009C0000F91BF90AF909F908F900895CF93DF933A
:1009D00090E0FC01EA51FF4F2491FC01EE52FF4FE1
:1009E00084918823C1F090E0880F991FFC01E8539F
:1009F000FF4FC591D491FC01E254FF4FA591B491F2
:100A00009FB7F8948881322F309583238883EC91A7
:100A1000E22BEC939FBFDF91CF91089590E0FC0112
:100A2000E655FF4F2491FC01EA51FF4F3491FC0140
:100A3000EE52FF4FE491EE23B9F1222339F1233036
:100A400091F038F42130A9F0223001F584B58F7D82
:100A500012C0273091F02830A1F02430B9F48091F1
:100A600080008F7D03C0809180008F77809380000D
:100A70000DC084B58F7784BD09C08091B0008F7799
:100A800003C08091B0008F7D8093B000F0E0EE0F46
:100A9000FF1FE056FF4FA591B491EC91E32381E055
:100AA00090E021F480E0089580E090E008951F92A6
:100AB0000F920FB60F9211242F933F938F939F9312
:100AC000AF93BF938091D3069091D406A091D506A1
:100AD000B091D6063091D20623E0230F2D3720F4B3
:100AE0000196A11DB11D05C026E8230F0296A11D88
:100AF000B11D2093D2068093D3069093D406A09381
:100B0000D506B093D6068091CE069091CF06A091DF
:100B1000D006B091D1060196A11DB11D8093CE06DD
:100B20009093CF06A093D006B093D106BF91AF911A
:100B30009F918F913F912F910F900FBE0F901F901B
:100B40001895CF93DF93CDB7DEB7A3970FB6F89480
:100B5000DEBF0FBECDBF789484B5826084BD84B5FE
:100B6000816084BD85B5826085BD85B5816085BDA8
:100B700080916E00816080936E0010928100809160
:100B800081008260809381008091810081608093E8
:100B90008100809180008160809380008091B1000D
:100BA00084608093B1008091B00081608093B00038
:100BB00080917A00846080937A0080917A008260CC
:100BC00080937A0080917A00816080937A0080918E
:100BD0007A00806880937A001092C100E0912A0622
:100BE000F0912B0682E08083E0912606F0912706A3
:100BF0001082E0912806F091290680E1808310920E
:100C00003206E0912E06F0912F0686E08083E09177
:100C10002C06F0912D06808180618083E0912C0666
:100C2000F0912D06808188608083E0912C06F09100
:100C30002D06808180688083E0912C06F0912D063E
:100C400080818F7D8083F8941092800010928100C3
:100C5000109285001092840082E194E090938900C4
:100C600080938800809181008860809381008091CA
:100C7000810084608093810080916F008260809306
:100C80006F00789484E00E94E60485E00E94E60408
:100C900080E090E00E94320F91E0811101C090E06D
:100CA00090930301FF24FA9464E0862E912CA12CEA
:100CB000B12C412C512C320153948091B806909163
:100CC000B906892BC1F09091BA0693FB992790F948
:100CD0008091CD0620E4298B23E02A8B9B8B08E0B2
:100CE00025EC36E043E0BE016F5E7F4F0E94980224
:100CF0008830F9F022C08091CD06198A03E028EBF4
:100D000036E041E0BE016F5E7F4F0E949802833063
:100D1000A1F48091CD0641E4498B0AE02BEB36E04B
:100D200041E0BE016F5E7F4F0E9498028A3059F207
:100D30000AC08091C50685FF06C01092B8061092C1
:100D4000B9061092BA068091BA068BA388E0E5EC4A
:100D5000F6E0DE01119601900D928A95E1F788E0A8
:100D6000FE013196DE01199601900D928A95E1F708
:100D700088E0FE013996DE01519601900D928A9528
:100D8000E1F70A8500FB332430F8069501709B8556
:100D90009B8FCC84DD84EE842F852C8F48894A8FED
:100DA0008989982F91709D8F9093180691E0282F34
:100DB00022702E8F81FF90E09093170691E0482FCC
:100DC00044704F8F82FF90E09093160691E0282F99
:100DD000287028A383FF90E0909315061A8930FAB3
:100DE00010F900FB11F91A8B91E0412F407149A3D2
:100DF00014FF90E09093140691E0282F2071298F22
:100E000084FF90E09093130681E0412F48704AA33D
:100E100013FF80E08093440184E00E940E0521E0EE
:100E200030E0892B11F020E030E0C901830D911DE5
:100E30001C0181E02114310409F480E080933C011D
:100E400085E00E940E0521E030E0892B11F020E0C2
:100E500030E0200F311D81E02115310509F480E0DB
:100E600080933B0181E0912F947012FF80E080938A
:100E7000460116FB882780F980930F0615FB88270B
:100E800080F9809311064C8D409310068A8D8093D3
:100E900012064B8D40930E06C0920D06D0920C06A2
:100EA000E0920B064BA143FB882780F98093400119
:100EB0008D8D81112EC04E8D41112BC08F8D8111D2
:100EC00028C048A1411125C089A1811122C0498DA6
:100ED00041111FC08AA181111CC02328D1F4232BEA
:100EE000C1F41476B1F42C8D2C3698F44A8D4C361E
:100EF00080F48B8D8756833360F489E98C0D8333BE
:100F000040F489E98D0D833320F489E98E0D833314
:100F100038F010924D0110924B011092500117C001
:100F200080910C0183FF13C080914D0181110FC08E
:100F300080914201811108C080914101811104C05A
:100F400080913E01882319F081E080934D018091CA
:100F50001F01882331F1992319F081E0809319064C
:100F6000898D8823A9F080E090E00E94320F11E083
:100F7000811110E01093030180E090E00E94320F95
:100F8000181779F0612F80E090E00E943A0F09C0B5
:100F900080910801909109018039914014F01092DC
:100FA0001F01809119068111D5C510913C011123B3
:100FB00071F18091480181112AC0809142018F5FB7
:100FC00080934201833049F480910E0680934A0158
:100FD00080910D068093490171C0843019F40E94FC
:100FE000DB0E6CC0853069F480910E068856813323
:100FF00008F064C080910D068856813308F462C001
:101000005DC0863008F45EC01092420157C08091E6
:101010003B01882371F18091470181112AC08091A1
:101020000301811116C080910F06811104C08091C7
:101030001006853670F01092410180913F018F5F5C
:1010400080933F0110923E018530C0F110923F0124
:1010500035C0809141018F5F8093410110923F0123
:1010600010923E0110924201843040F110924101F1
:1010700025C080914601882389F080914501811126
:101080000DC080910A06813019F410920A0603C03F
:1010900081E080930A061092090610C080914401F5
:1010A000882361F080914301811108C010920A06E3
:1010B0009091090681E089278093090610913C01EF
:1010C000112321F080914801882359F0809101017A
:1010D000909102018B35910544F480913A01811180
:1010E00004C010923A010E94B90300913B01002311
:1010F00021F080914701882359F08091010190915E
:1011000002018B3591054CF480913A01882329F036
:1011100081E080933A010E94B903011105C01111C9
:1011200003C081E08093000180911306882361F061
:10113000109242011092410110923F0110923E0123
:1011400010920A0610920906109348010093470175
:101150008091460180934501809144018093430131
:1011600080914101843009F443C080914201813073
:1011700091F480914D01811104C080910301882375
:10118000B9F180913D01882319F010920E0630C00C
:10119000F0920E062DC08230C9F480914D0181116C
:1011A00004C080910301882319F10E94DB0EA30182
:1011B00092010E94480F60930E060E94DB0EA3016D
:1011C00092010E94480F60930D0612C0833081F493
:1011D00080914D01811104C080910301882341F069
:1011E00080914A0180930E068091490180930D06FB
:1011F00080914101813071F480914D01811105C0D0
:1012000080910301882309F452C180913D018093AC
:101210000F064DC1823061F480914D01811105C0EE
:1012200080910301882309F442C180913D0182C06D
:101230008330A9F480914D01811105C08091030193
:10124000882309F434C180E880930E0610920D06BD
:1012500080913D01882309F42AC181E023C0809157
:101260003F01813011F580930F06F09210068091B6
:101270004B0181110CC080910C0183FF18C11092A9
:1012800005011092040181E080934B0110C180910F
:101290000401909105010B970CF409C1F0920D0621
:1012A00080913D018093170602C18230B9F481E03C
:1012B00080930F06F092100680914B018823D9F29B
:1012C00080910401909105010B970CF4F0C0F0920D
:1012D0000D0680913D01809317063BC08330A9F431
:1012E00081E080930F06F092100680914B018823D5
:1012F00011F280910401909105010B970CF4D7C075
:1013000080913D0180931406D2C0843029F581E09C
:1013100080930F06F092100690914B0191110DC031
:1013200090910C0193FFC3C010920501109204012B
:1013300080934B0180931506BAC02091040130912F
:1013400005012B3031050CF4B2C080931506809155
:101350003D0180931806ABC080913E01813009F0B9
:1013600084C01092100610920F061092120610926E
:10137000110680914D01882329F180910C0183FF92
:1013800021C0109207011092060181E08093500164
:101390000E94DB0E22E030E040E050E00E94480F67
:1013A00021E0672B682B692B09F420E020934C0186
:1013B0000E94DB0EA50194010E94480F70934F011B
:1013C00060934E0180915001882309F470C0809190
:1013D0000601909107010F970CF069C060914D01D3
:1013E00070E080E090E04AE00E94950442E050E026
:1013F00066E371E08AE196E00E94A80080914C01CA
:10140000882329F0F092100691E090930F06209126
:101410004E0130914F012115310541F4882319F017
:1014200010920E0644C080913D010BC02130310561
:1014300059F4882319F0F0920E0639C080913D01CD
:10144000819580930E0633C090913D012230310585
:1014500029F4811103C09093180629C0992339F10A
:10146000811125C0F0920D0622C0823001F58091D5
:101470005001811108C0109207011092060181E00D
:101480008093500114C0809104019091050105974B
:1014900074F480914001882351F00E94DB0EA50175
:1014A00094010E94480F70934F0160934E01809108
:1014B0000A06813009F038C19091080691110BC0DD
:1014C000109209011092080180930806209156019C
:1014D00080E090E014C180911806882329F0809163
:1014E000560181608093560180911706882329F068
:1014F0008091560182608093560180911606882360
:1015000029F08091560184608093560180911506E0
:10151000882329F08091560188608093560180913C
:101520001406882329F0809156018061809356012A
:1015300080910F06882329F0809156018062809364
:10154000560180911106882329F08091560180640C
:101550008093560180911306882329F080915601CB
:1015600080688093560180910C06853410F491E0D8
:1015700023C090910E062BEB290F2D3010F492E032
:101580001BC02EEA290F243110F493E015C02AE97C
:10159000290F253310F494E00FC025E6290F2431DC
:1015A00010F495E009C021E5290F2D3010F496E0E4
:1015B00003C09C3B18F097E09093550190910D0665
:1015C000953410F491E01EC02BEB290F293010F454
:1015D00092E018C022EB290F283110F493E012C0DA
:1015E0002AE9290F253310F494E00CC025E6290FD1
:1015F000293110F495E006C0945B983010F496E021
:1016000001C097E090935401853410F481E01EC02E
:101610009BEB980F9D3010F482E018C09EEA980F63
:10162000943110F483E012C09AE9980F953310F4C6
:1016300084E00CC095E6980F943110F485E006C064
:101640008F5A8D3010F486E001C087E080935301FB
:1016500080910B06853410F481E01EC09BEB980F3F
:10166000993010F482E018C092EB980F983110F482
:1016700083E012C09AE9980F953310F484E00CC00F
:1016800095E6980F993110F485E006C0845B8830A8
:1016900010F486E001C087E0809352016091080158
:1016A0007091090130915501377040915401477094
:1016B00090915301209152012770FB01EE0FFF1F03
:1016C000E60FF71FDF01A95ABE4F809156018C9398
:1016D000E85AFE4F440F440F440F892F8295880F1C
:1016E000880F807C342B382B308392FB992790F91C
:1016F0008181807F220F892B822B8183E7CE41E07D
:1017000050E060E070E0082E04C0440F551F661FD3
:10171000771F0A94D2F740952423019688309105CB
:1017200071F72093560116C2823009F01EC18091D4
:101730001406882309F408C180911806882329F02B
:10174000809156018160809356018091170688230D
:1017500029F080915601826080935601809116068F
:10176000882329F0809156018460809356018091EE
:101770001506882329F080915601886080935601D0
:1017800080915601982F90619093560190910F0689
:10179000992319F080638093560180911106882364
:1017A00029F0809156018064809356018091130640
:1017B000882329F08091560180688093560180919A
:1017C0000C06853410F491E023C090910E062BEBAB
:1017D000290F2D3010F492E01BC02EEA290F24317E
:1017E00010F493E015C02AE9290F253310F494E092
:1017F0000FC025E6290F243110F495E009C021E53A
:10180000290F2D3010F496E003C09C3B18F097E0B0
:101810009093550190910D06953410F491E01EC0FF
:101820002BEB290F293010F492E018C022EB290F7E
:10183000283110F493E012C02AE9290F253310F45F
:1018400094E00CC025E6290F293110F495E006C07C
:10185000945B983010F496E001C097E090935401A7
:10186000853410F481E01EC09BEB980F9D3010F47E
:1018700082E018C09EEA980F943110F483E012C001
:101880009AE9980F953310F484E00CC095E6980F10
:10189000943110F485E006C08F5A8D3010F486E044
:1018A00001C087E08093530180910B06853410F4CA
:1018B00081E01EC09BEB980F993010F482E018C0B5
:1018C00092EB980F983110F483E012C09AE9980FC8
:1018D000953310F484E00CC095E6980F993110F41C
:1018E00085E006C0845B883010F486E001C087E0A4
:1018F0008093520120915501277030915401377027
:1019000080915301909152019770409156014093FC
:101910005701330F330F330F482F4295440F440FB5
:10192000407C232B242B2093580182FB222720F973
:1019300080915901807F990F822B892B80935901C7
:1019400081E08093510106C180915101882309F4FF
:1019500001C18091080190910901019690930901BC
:101960008093080110925101F5C0809109068823E7
:1019700009F4ECC080910706811108C0109209019A
:101980001092080181E080930706E4C0809108016D
:1019900090910901803941E094070CF0D2C09C017C
:1019A000220F331FF901E80FF91FE95AFE4F40815A
:1019B0004093560140FF03C051E05093180641FF89
:1019C00003C051E05093170642FF03C051E050930B
:1019D000160643FF03C051E05093150644FF03C0B1
:1019E00051E05093140645FF03C051E050930F0699
:1019F00046FF03C051E05093110647FF03C041E08A
:101A000040931306F901E80FF91FE85AFE4F408191
:101A1000E42FE7704E2F50E0FA013197E730F105DF
:101A2000A8F4EC5CFF4F0C94AB0F10920E060EC0A6
:101A300045E401C042E540930E0608C040E8FBCFF4
:101A40004EEAF9CF4BEBF7CFF0920E06F901E80F13
:101A5000F91FE85AFE4F4081469546954695E42F7A
:101A6000E7704E2F50E0FA013197E730F105A8F406
:101A7000E55CFF4F0C94AB0F10920D060EC045E4D1
:101A800001C04EE440930D0608C040E8FBCF43EB95
:101A9000F9CF4BEBF7CFF0920D06D901A80FB91F84
:101AA000A85ABE4FEC915E2F52955695569553709D
:101AB00011964C914170440F440FE42FE52B4E2FAB
:101AC00050E0FA013197E730F105A8F4EE5BFF4FE3
:101AD0000C94AB0F10920C060EC045E401C042E519
:101AE00040930C0608C040E8FBCF4EEAF9CF4BEB21
:101AF000F7CFF0920C06820F931FFC01E75AFE4FBE
:101B000080818695E82FE7708E2F90E0FC01319759
:101B1000E730F105F8F4E75BFF4F0C94AB0F109240
:101B20000B0618C085E401C08EE480930B0612C03A
:101B300080E8FBCF83EBF9CF8BEBF7CFF0920B066E
:101B400009C0109209011092080104C01092080601
:101B500010920706809117019091180690FB80F96A
:101B60009091170690FB81F99091160690FB82F9EF
:101B70009091150690FB83F98093170190911801BD
:101B80002091140620FB94F9909318019091420142
:101B900091110AC090914101911106C090911306D4
:101BA00090FB84F98093170180911801887F877FCB
:101BB0008093180120911206253618F480911106A1
:101BC00001C081E0819580931E01909110069536A9
:101BD00018F480910F0601C081E0819580931D016A
:101BE000253618F42091110601C021E080911801DA
:101BF00020FB85F980931801953618F490910F0613
:101C000001C091E08091180190FB86F98093180142
:101C100080910E068093190180910D0680931A0120
:101C200080910C0680931B0180910B0680931C0110
:101C30008091BA069091400190FB83F98093BA0697
:101C40008091170185FD35C01FB7F89427E131E079
:101C50004DE051E06AE071E08091B7060E94E30236
:101C6000813051F427E131E04DE051E06AE071E06C
:101C70008091B7060E94E302823051F427E131E0FF
:101C80004DE051E06AE071E08091B7060E94E30206
:101C90001FBF833021F480910C01877F05C0843001
:101CA00031F480910C01886080930C0102C0853072
:101CB00091F30E94AE010C945D06EAE1F6E0138216
:101CC000128288EE93E0A0E0B0E084839583A6833F
:101CD000B78388E291E09183808385EC90E09587DB
:101CE000848784EC90E09787868780EC90E0918BE6
:101CF000808B81EC90E0938B828B82EC90E0958BD3
:101D0000848B86EC90E0978B868B118E128E138ECF
:101D1000148E82E08093CD0683E08093B706089509
:101D20008F929F92AF92BF92CF92DF92EF92FF92EB
:101D3000CF93DF93EC01688179818A819B81611562
:101D400071058105910521F464E279ED8BE597E059
:101D50002DE133EF41E050E00E94480F49015A0164
:101D60009B01AC01A7EAB1E40E94670F6B017C0103
:101D7000ACEEB4EFA50194010E94750FDC01CB011C
:101D80008C0D9D1DAE1DBF1DB7FF03C00197A1099E
:101D9000B04888839983AA83BB83BC01CD019F7718
:101DA000DF91CF91FF90EF90DF90CF90BF90AF90F9
:101DB0009F908F9008958F929F92AF92BF92CF92F3
:101DC000DF92EF92FF92609120017091210180914A
:101DD000220190912301611571058105910521F47E
:101DE00064E279ED8BE597E02DE133EF41E050E0DF
:101DF0000E94480F49015A019B01AC01A7EAB1E4D6
:101E00000E94670F6B017C01ACEEB4EFA501940159
:101E10000E94750FDC01CB018C0D9D1DAE1DBF1DF9
:101E2000B7FF03C00197A109B048809320019093A8
:101E30002101A0932201B0932301BC01CD019F7722
:101E4000FF90EF90DF90CF90BF90AF909F908F90DA
:101E50000895609320017093210180932201909353
:101E600023010895F999FECF92BD81BDF89A992773
:101E700080B50895262FF999FECF1FBA92BD81BD76
:101E800020BD0FB6F894FA9AF99A0FBE01960895FC
:101E9000052E97FB1EF400940E945F0F57FD07D09C
:101EA0000E947A0F07FC03D04EF40C945F0F5095FC
:101EB0004095309521953F4F4F4F5F4F0895909536
:101EC0008095709561957F4F8F4F9F4F08950E9429
:101ED0009C0FA59F900DB49F900DA49F800D911D08
:101EE00011240895B7FF0C94670F0E94670F821B9F
:101EF000930B0895A1E21A2EAA1BBB1BFD010DC076
:101F0000AA1FBB1FEE1FFF1FA217B307E407F507A9
:101F100020F0A21BB30BE40BF50B661F771F881F85
:101F2000991F1A9469F760957095809590959B011B
:101F3000AC01BD01CF010895A29FB001B39FC001C4
:101F4000A39F700D811D1124911DB29F700D811DE5
:101F50001124911D0895EE0FFF1F0590F491E02DBF
:101F6000099481E090E0F8940C94B60FF894FFCFB8
:101F7000014900012300230086010900030080803D
:101F80008080801F1F00000080808080801F1F01D4
:101F900001000000000000003F01A800D6008C01F5
:0A1FA0000701E500F9000D0A00003A
:00000001FF
