:100000000C947E000C94A6000C94A6000C94A60000
:100010000C94A6000C94A6000C94A6000C94A600C8
:100020000C94A6000C94A6000C94A6000C948603D5
:100030000C94A6000C94A6000C94A6000C94A600A8
:100040000C94B4050C94A6000C9466020C94400227
:100050000C94A6000C94A6000C94A6000C94A60088
:100060000C94A6000C94A600B70DBA0DBC0DC00DE3
:10007000C20DC40DC60DDE0DE10DE30DE70DE90D5A
:10008000EB0DED0D0C0E0F0E110E150E170E190EB9
:100090001B0E310E340E360E3A0E3C0E3E0E400E46
:1000A00000000000230026002900000000080002D4
:1000B0000100000304070000000000000000000031
:1000C0000000250028002B0000000000240027006D
:1000D0002A000404040404040404020202020202CA
:1000E00003030303030301020408102040800102FC
:1000F00004081020010204081020940F11241FBED0
:10010000CFEFD8E0DEBFCDBF11E0A0E0B1E0E8EF77
:10011000F1E202C005900D92A633B107D9F727E0AE
:10012000A6E3B1E001C01D92A530B207E1F710E0EF
:10013000CEE7D0E004C02197FE010E94EF10CD373A
:10014000D107C9F70E94FE050C94FA100C94000028
:10015000CF92DF92EF92FF920F931F93CF93DF9393
:100160006C017A018B01C0E0D0E0CE15DF0581F093
:10017000D8016D918D01D601ED91FC910190F08136
:10018000E02DC6010995892B11F02196EECF7E0155
:10019000C701DF91CF911F910F91FF90EF90DF90FA
:1001A000CF900895089580E090E00895FC01538D6C
:1001B000448D252F30E0842F90E0821B930B541741
:1001C00010F0CF96089501970895FC01918D828DCE
:1001D000981761F0828DDF01A80FB11D5D968C919B
:1001E000928D9F5F9F73928F90E008958FEF9FEFA6
:1001F0000895FC01918D828D981731F0828DE80F62
:10020000F11D858D90E008958FEF9FEF0895FC011B
:10021000918D228D892F90E0805C9F4F821B9109E8
:100220008F739927089586E496E00E94070121E0E4
:10023000892B09F420E0822F0895FC01848DDF01D1
:10024000A80FB11DA35ABF4F2C91848D90E0019649
:100250008F739927848FA689B7892C93A089B18938
:100260008C91837080648C93938D848D981306C0D9
:100270000288F389E02D80818F7D80830895EF923D
:10028000FF920F931F93CF93DF93EC0181E0888F50
:100290009B8D8C8D981305C0E889F989808185FD37
:1002A00026C0F62E0B8D10E00F5F1F4F0F73112726
:1002B000E02E8C8DE8120CC00FB607FCFACFE8894F
:1002C000F989808185FFF5CFCE010E941D01F1CF14
:1002D0008B8DFE01E80FF11DE35AFF4FF0829FB7AF
:1002E000F8940B8FEA89FB89808180620AC09FB7EE
:1002F000F894EE89FF896083E889F98980818370A9
:10030000806480839FBF81E090E0DF91CF911F9157
:100310000F91FF90EF900895CF93DF93EC01888DBC
:100320008823C9F0EA89FB89808185FD05C0A889F9
:10033000B9898C9186FD0FC00FB607FCF5CF80817F
:1003400085FFF2CFA889B9898C9185FFEDCFCE01C9
:100350000E941D01E7CFDF91CF91089580E090E0EA
:10036000892B29F00E94130181110C94000008953B
:10037000EF920F931F93F901DA013C912E2D2095F6
:1003800032233C9330813E293083FC01D80198E030
:1003900080E030E020E04C914E2189F02A95D9F799
:1003A00020E04C914E2159F02A95D9F720E84C9144
:1003B0004E2129F02A95D9F73A9561F717C047E001
:1003C0004A95F1F7000031E0550F4C914E2109F0AC
:1003D00051609A9529F45193839598E0681731F00C
:1003E00020E84C914E2111F72A95D9F71F910F91D2
:1003F000EF9008950F931F93F9012081202B208304
:10040000DA012C91202B2C9320814081202B30E08D
:1004100010E00095109550E004231523DC015D9158
:1004200048E00083550F40F474E07A95F1F720839B
:100430007AE07A95F1F705C07EE07A95F1F7000051
:1004400020834A9529F073E07A95F1F70000E9CF0F
:100450006A9529F071E07A95F1F70000E0CF72E03B
:100460007A95F1F700000000008374E07A95F1F7C7
:100470000000000020831F910F9108950E94F51045
:100480001F920F920FB60F9211242F933F934F9309
:100490005F936F937F938F939F93AF93BF93EF93EC
:1004A000FF9386E496E00E941D01FF91EF91BF91BA
:1004B000AF919F918F917F916F915F914F913F91FC
:1004C0002F910F900FBE0F901F9018951F920F92B3
:1004D0000FB60F9211242F938F939F93EF93FF9357
:1004E000E0915606F09157068081E0915C06F0910C
:1004F0005D0682FD12C0908180915F068F5F8F73D1
:1005000020916006821751F0E0915F06F0E0EA5B0F
:10051000F94F958F80935F0601C08081FF91EF9125
:100520009F918F912F910F900FBE0F901F90189554
:100530007F928F929F92AF92BF92CF92DF92EF9273
:10054000FF920F931F93CF93DF93DB01642F590129
:10055000F02E282F30E0F901EA51FF4FE490F90125
:10056000EE52FF4F249130E0220F331FF901E85380
:10057000FF4FC591D491F901E254FF4FC590D4903B
:10058000F901E056FF4F859094907FB6F8940E2DB8
:100590009601AE01CD010E94FA0184019601AE01DF
:1005A0006F2DC5010E94B8017FBEDF91CF911F91D1
:1005B0000F91FF90EF90DF90CF90BF90AF909F9002
:1005C0008F907F9008953F924F925F926F927F92AB
:1005D0008F929F92AF92BF92CF92DF92EF92FF9253
:1005E0000F931F93CF93DF9300D01F92CDB7DEB749
:1005F0003B014A01290190E0FC01EA51FF4FF490D0
:10060000FC01EE52FF4F849190E0880F991FFC018E
:10061000E853FF4FC590D490FC01E254FF4FA590E2
:10062000B490FC01E056FF4F059114913FB6F89449
:1006300019821A821B82EF2C9501A60163E0CE017C
:1006400001960E94B8018130B9F48981811109C0F5
:100650000F2D9501A60163E0C3010E94FA0181E01C
:100660002BC0813411F50F2D9501A6016AE0C4015C
:100670000E94FA0182E020C08330B9F4898180347D
:10068000A1F48A81833089F40F2D9501A60168E0D9
:10069000C2010E94FA018B818370813041F0823067
:1006A00041F0833041F486E007C080E005C084E07B
:1006B00003C085E001C083E03FBE0F900F900F9014
:1006C000DF91CF911F910F91FF90EF90DF90CF902E
:1006D000BF90AF909F908F907F906F905F904F9062
:1006E0003F9008951F93CF93DF93EC01162F0E9444
:1006F0007610181739F0612FCE01DF91CF911F913D
:100700000C947E10DF91CF911F9108951F920F924C
:100710000FB60F9211242F938F939F9390913701CF
:1007200081E089278093370180910501909106012E
:10073000813921E092072CF4019690930601809371
:10074000050180910301843218F48F5F80930301C7
:1007500080910401843218F48F5F809304018091AA
:1007600002018B3518F48F5F8093020180910001A4
:10077000803118F48F5F809300019F918F912F91AA
:100780000F900FBE0F901F901895AF92CF92EF92DF
:100790000F931F93CF93DF93162FD42FC22F811166
:1007A00003C080E090E002C081E390E00E943E053B
:1007B000111103C080E090E002C081E390E00E944C
:1007C0003E05D11103C080E090E002C081E390E0DB
:1007D0000E943E05C11103C080E090E002C081E3A9
:1007E00090E00E943E05011103C080E090E002C04D
:1007F00081E390E00E943E05E11003C080E090E0BC
:1008000002C081E390E00E943E05C11003C080E079
:1008100090E002C081E390E00E943E05A11003C079
:1008200080E090E002C081E390E0DF91CF911F91E2
:100830000F91EF90CF90AF900C943E058091010105
:10084000882369F080913D01811104C080913E01AF
:10085000882329F0109202011092010108958091DD
:10086000020196EF980F993020F590913C01992361
:1008700021F0909136019923C1F090913B01992389
:1008800021F090913601911110C090913901992376
:1008900021F090913601911108C09091380199236F
:1008A00041F090913601992321F081E080933A0143
:1008B000089594EE980F993000F590913C01923094
:1008C00020F090913601992381F390913B01923071
:1008D00020F0909136019111E8CF9091390192303A
:1008E00020F0909136019111E0CF90913801923033
:1008F00020F0909136019111D8CF92ED980F993058
:1009000000F590913C01933020F0909136019923AD
:1009100061F290913B01933020F09091360191115A
:10092000C4CF90913901933020F09091360191110C
:10093000BCCF90913801933020F090913601911105
:10094000B4CF90EC980F993008F590913C01943019
:1009500028F090913601992309F4A7CF90913B019B
:10096000943020F09091360191119FCF90913901F0
:10097000943020F090913601911197CF90913801E9
:10098000943020F09091360191118FCF82558930AB
:1009900008F580913C01853028F08091360188234C
:1009A00009F483CF80913B01853020F0809136019E
:1009B00081117BCF80913901853020F08091360103
:1009C000811173CF80913801853020F080913601FC
:1009D00081116BCF10923A0108958F929F92AF923E
:1009E000BF920F931F93CF93DF93CDB7DEB7A1973D
:1009F0000FB6F894DEBF0FBECDBF19A2423008F487
:100A00004AE08E010F5D1F4F842E912CA12CB12C3A
:100A1000A50194010E94BE10E62FB901CA01015040
:100A20001109EA3014F4E05D01C0E95CD801EC93EF
:100A3000232B242B252B61F70115110571F0F801EB
:100A400001900020E9F73197AF01401B510BB8012D
:100A500086E496E00E94A80002C080E090E0A196A3
:100A60000FB6F894DEBF0FBECDBFDF91CF911F91BF
:100A70000F91BF90AF909F908F900895682F86E45C
:100A800096E00C943F01CF93DF9390E0FC01EA5194
:100A9000FF4F2491FC01EE52FF4F84918823C1F057
:100AA00090E0880F991FFC01E853FF4FC591D49146
:100AB000FC01E254FF4FA591B4919FB7F89488814F
:100AC000322F309583238883EC91E22BEC939FBFE8
:100AD000DF91CF91089590E0FC01E655FF4F2491FE
:100AE000FC01EA51FF4F3491FC01EE52FF4FE491BB
:100AF000EE23B9F1222339F1233091F038F421307B
:100B0000A9F0223001F584B58F7D12C0273091F015
:100B10002830A1F02430B9F4809180008F7D03C08B
:100B2000809180008F77809380000DC084B58F778F
:100B300084BD09C08091B0008F7703C08091B00060
:100B40008F7D8093B000F0E0EE0FFF1FE056FF4F67
:100B5000A591B491EC91E32381E090E021F480E051
:100B6000089580E090E008951F920F920FB60F92C3
:100B700011242F933F938F939F93AF93BF938091B3
:100B8000010790910207A0910307B09104073091EB
:100B9000000723E0230F2D3720F40196A11DB11D7E
:100BA00005C026E8230F0296A11DB11D2093000762
:100BB0008093010790930207A0930307B093040763
:100BC0008091FC069091FD06A091FE06B091FF0673
:100BD0000196A11DB11D8093FC069093FD06A09384
:100BE000FE06B093FF06BF91AF919F918F913F9109
:100BF0002F910F900FBE0F901F901895CF93DF93FA
:100C0000CDB7DEB76F970FB6F894DEBF0FBECDBF7E
:100C1000789484B5826084BD84B5816084BD85B5D7
:100C2000826085BD85B5816085BD80916E008160E3
:100C300080936E0010928100809181008260809389
:100C4000810080918100816080938100809180008B
:100C50008160809380008091B10084608093B100B6
:100C60008091B00081608093B00080917A008460B0
:100C700080937A0080917A00826080937A008091DC
:100C80007A00816080937A0080917A0080688093F6
:100C90007A001092C100E0915606F091570682E06A
:100CA0008083E0915206F09153061082E091540641
:100CB000F091550680E1808310925E06E0915A061D
:100CC000F0915B0686E08083E0915806F09159062A
:100CD000808180618083E0915806F091590680817F
:100CE00088608083E0915806F09159068081806881
:100CF0008083E0915806F091590680818F7D808332
:100D0000F894109280001092810010928500109249
:100D1000840082E194E09093890080938800809120
:100D2000810088608093810080918100846080933D
:100D3000810080916F00826080936F00789484E0DE
:100D40000E94430585E00E9443058091FB068F3F8A
:100D500029F462E083E690E00E9472038091FA0633
:100D60008F3F29F463E084E690E00E94720380E004
:100D700090E00E94761091E0811101C090E0909384
:100D8000450181E090E00E94761091E0811101C060
:100D900090E090934506FF24FA94412C512C3201A7
:100DA00053948091E4069091E506892BC1F09091CF
:100DB000E60693FB992790F98091F90620E4298BA8
:100DC00023E02A8B9B8B08E021EF36E043E0BE0155
:100DD0006F5E7F4F0E9498028830F9F022C08091A8
:100DE000F906198A03E024EE36E041E0BE016F5EA9
:100DF0007F4F0E9498028330A1F48091F90691E41C
:100E0000998B0AE027EE36E041E0BE016F5E7F4F2E
:100E10000E9498028A3059F20AC08091F10685FF3B
:100E200006C01092E4061092E5061092E6062091A4
:100E3000E6062F8F88E0E1EFF6E0DE0111960190E3
:100E40000D928A95E1F788E0FE013196DE01199650
:100E500001900D928A95E1F788E0FE013996DE0156
:100E6000519601900D928A95E1F73A8430FA222446
:100E700020F831FA992490F8CB84DC84ED840E8537
:100E8000AF84B8888989982F9170892E90934406F1
:100E900091E0282F22702A8F81FF90E090934306E3
:100EA00091E0282F24702B8F82FF90E090934206D0
:100EB00091E0282F28702C8F83FF90E090934106BB
:100EC0001A8920FA10F990FA11F91A8B91E0212F62
:100ED00020712D8F14FF90E090933D0691E0282F14
:100EE0002071298F84FF90E09093400681E0912F3C
:100EF00098709E8F13FF80E080933E0684E00E94EE
:100F00006B0521E030E0892B11F020E030E0C901D1
:100F1000820D911D1C0181E02114310409F480E04F
:100F200080933E0185E00E946B05A1E0B0E0892B33
:100F300011F0A0E0B0E0A90DB11D81E0109709F417
:100F400080E080933D0181E0612F647012FF80E0BA
:100F500080933F0616FB882780F980933B0615FB9C
:100F6000882780F980933C06A0920906B0920A0671
:100F7000C0920806D0920706E09206060093050686
:100F8000E3E3F6E080E090E04C2D50E09A01082E7B
:100F900002C0359527950A94E2F7217021930196B6
:100FA0008830910599F7EBE2F6E080E090E04D2D76
:100FB00050E09A01082E02C0359527950A94E2F771
:100FC0002170219301968830910599F7E3E2F6E0CC
:100FD00080E090E04E2D50E09A01082E02C0359539
:100FE00027950A94E2F721702193019688309105A4
:100FF00099F7EBE1F6E080E090E0402F50E09A01B5
:10100000082E02C0359527950A94E2F721702193A6
:1010100001968830910599F7E3E1F6E080E090E0F1
:101020004A2D50E09A01082E02C0359527950A9462
:10103000E2F72170219301968830910599F7EBE052
:10104000F6E080E090E04B2D50E09A01082E02C0BF
:10105000359527950A94E2F72170219301968830FF
:10106000910599F79F8D93FB882780F980933A012A
:1010700081102CC02A8D211129C08B8D811126C091
:101080009C8D911123C02D8D211120C0898D81113E
:101090001DC09E8D91111AC02328C1F4AB2BB1F451
:1010A0001476A1F42BE62A1588F02B1578F089E93F
:1010B0008C0D833358F489E98D0D833338F489E935
:1010C0008E0D833318F40756033348F010924A010B
:1010D0001092000110924601109249011BC08091AC
:1010E00000018031B9F48091090183FF13C0809120
:1010F0004A0181110FC080913C01811108C080918B
:101100003B01811104C080913801882319F081E0EE
:1011100080934A0180911C01882319F1662339F0DC
:101120006091450681E090E00E9472031AC0898DAB
:10113000882371F01091450180E090E00E947610C4
:10114000181779F0612F80E090E00E947E1009C0AE
:1011500080910501909106018039914014F0109220
:101160001C0180914506811197C510913E01112304
:1011700071F18091420181112AC080913C018F5F01
:1011800080933C01833049F48091080680934401A8
:10119000809107068093430171C0843019F40E9446
:1011A0001F106CC0853069F4809108068856813321
:1011B00008F064C0809107068856813308F462C045
:1011C0005DC0863008F45EC010923C0157C080912B
:1011D0003D01882371F18091410181112AC08091E4
:1011E0004501811116C080913B06811104C0809198
:1011F0000906853670F010923B01809139018F5FAE
:1012000080933901109238018530C0F11092390174
:1012100035C080913B018F5F80933B011092390173
:101220001092380110923C01843040F110923B0141
:1012300025C080913F06882389F08091400181116B
:101240000DC080910406813019F41092040603C089
:1012500081E0809304061092030610C080913E0640
:10126000882361F080913F01811108C0109204062B
:101270009091030681E089278093030610913E0137
:10128000112321F080914201882341F080910201D5
:101290008B3540F480913601811104C010923601E3
:1012A0000E941E0400913D01002321F08091410124
:1012B000882341F0809102018B3548F480913601FA
:1012C000882329F081E0809336010E941E040111D9
:1012D00005C0111103C081E0809301018091400697
:1012E000882361F010923C0110923B011092390169
:1012F00010923801109204061092030610934201D6
:101300000093410180913F068093400180913E0609
:1013100080933F0180913B01843009F443C0809168
:101320003C01813091F480914A01811104C0809187
:1013300045018823B9F180913701882319F0109273
:10134000080630C0F09208062DC08230C9F48091A2
:101350004A01811104C080914501882319F10E943E
:101360001F10A30192010E948C10609308060E9436
:101370001F10A30192010E948C106093070612C0F7
:10138000833081F480914A01811104C0809145012C
:10139000882341F0809144018093080680914301A5
:1013A0008093070680913B01813071F480914A015E
:1013B000811105C080914501882309F419C18091EC
:1013C000370180933B0614C1823061F480914A0159
:1013D000811105C080914501882309F409C18091DC
:1013E000370178C08330A9F480914A01811105C08A
:1013F00080914501882309F4FBC080E880930806AA
:101400001092070680913701882309F4F1C081E02A
:101410001FC0809139018130F1F480933B06F09236
:1014200009068091460181110AC08091090183FF5C
:10143000DFC01092030181E080934601D9C0809102
:1014400003018B3008F4D4C0F09207068091370175
:1014500080934306CDC08230A9F481E080933B069F
:10146000F0920906809146018823F9F280910301E8
:101470008B3008F4BDC0F09207068091370180934D
:10148000430634C0833099F481E080933B06F092A8
:10149000090680914601882341F2809103018B3037
:1014A00008F4A6C08091370180933D06A1C0843026
:1014B00001F581E080933B06F09209069091460188
:1014C00091110BC09091090193FF92C010920301FA
:1014D00080934601809341068BC0909103019B301D
:1014E00008F486C0809341068091370180934406BA
:1014F0007FC080913801813009F07AC010920906CE
:1015000010923B0610920A0610923C0680914A0106
:10151000882319F18091090183FF1FC010920401F3
:1015200081E0809349010E941F1022E030E040E0FA
:1015300050E00E948C1021E0672B682B692B09F486
:1015400020E0209348010E941F1024E030E040E09A
:1015500050E00E948C1060934701809149018823DC
:1015600009F446C0809104018F3008F041C06091B9
:101570004A0170E080E090E04AE00E94ED0442E021
:1015800050E063E371E086E496E00E94A800809159
:101590004801882329F0F092090691E090933B06D8
:1015A00090914701911108C0882319F01092080604
:1015B0001FC0809137010AC0913059F4882319F077
:1015C000F092080615C08091370181958093080636
:1015D0000FC020913701923029F4811103C020936C
:1015E000440606C0222321F0811102C0F0920706B2
:1015F00080910406813009F039C190910206911161
:101600000BC01092060110920501809302062091F2
:10161000500180E090E015C180914406882329F0B4
:10162000809150018160809350018091430688230E
:1016300029F0809150018260809350018091420690
:10164000882329F08091500184608093500180911B
:101650004106882329F080915001886080935001D1
:1016600080913D06882329F080915001806180930C
:10167000500180913B06882329F0809150018062BF
:101680008093500180913C06882329F0809150017D
:1016900080648093500180914006882329F08091D6
:1016A000500180688093500180910606853410F4C3
:1016B00091E023C0909108062BEB290F2D3010F4F8
:1016C00092E01BC02EEA290F243110F493E015C0DC
:1016D0002AE9290F253310F494E00FC025E6290FDD
:1016E000243110F495E009C021E5290F2D3010F4C4
:1016F00096E003C09C3B18F097E090934F019091C7
:101700000706953410F491E01EC02BEB290F293009
:1017100010F492E018C022EB290F283110F493E066
:1017200012C02AE9290F253310F494E00CC025E6F5
:10173000290F293110F495E006C0945B983010F41D
:1017400096E001C097E090934E01853410F481E05B
:101750001EC09BEB980F9D3010F482E018C09EEAEB
:10176000980F943110F483E012C09AE9980F9533E2
:1017700010F484E00CC095E6980F943110F485E0E5
:1017800006C08F5A8D3010F486E001C087E0809348
:101790004D0180910506853410F481E01EC09BEB5D
:1017A000980F993010F482E018C092EB980F98319E
:1017B00010F483E012C09AE9980F953310F484E096
:1017C0000CC095E6980F993110F485E006C0845B53
:1017D000883010F486E001C087E080934C0160916E
:1017E00005017091060180914F01877090914E0123
:1017F000977040914D0120914C012770FB01EE0F35
:10180000FF1FE60FF71FDF01AF5ABE4F30915001A7
:101810003C93EE5AFE4F990F990F990F342F329542
:10182000330F330F307C892B382B308342FB9927C1
:1018300090F93181307F220F832F892B822B818376
:10184000E6CE41E050E060E070E0082E04C0440FB6
:10185000551F661F771F0A94D2F7409524230196DF
:101860008830910571F72093500116C2823009F03B
:101870001EC180913D06882309F408C18091440669
:10188000882329F0809150018160809350018091DC
:101890004306882329F08091500182608093500193
:1018A00080914206882329F08091500184608093C2
:1018B000500180914106882329F080915001886071
:1018C0008093500180915001982F90619093500126
:1018D00090913B06992319F0806380935001809189
:1018E0003C06882329F08091500180648093500148
:1018F00080914006882329F0809150018068809370
:10190000500180910606853410F491E023C0909137
:1019100008062BEB290F2D3010F492E01BC02EEAA5
:10192000290F243110F493E015C02AE9290F25333B
:1019300010F494E00FC025E6290F243110F495E04F
:1019400009C021E5290F2D3010F496E003C09C3B1F
:1019500018F097E090934F0190910706953410F49A
:1019600091E01EC02BEB290F293010F492E018C033
:1019700022EB290F283110F493E012C02AE9290F35
:10198000253310F494E00CC025E6290F293110F41A
:1019900095E006C0945B983010F496E001C097E0A3
:1019A00090934E01853410F481E01EC09BEB980F9C
:1019B0009D3010F482E018C09EEA980F943110F424
:1019C00083E012C09AE9980F953310F484E00CC0BC
:1019D00095E6980F943110F485E006C08F5A8D304B
:1019E00010F486E001C087E080934D0180910506E8
:1019F000853410F481E01EC09BEB980F993010F4F1
:101A000082E018C092EB980F983110F483E012C076
:101A10009AE9980F953310F484E00CC095E6980F7E
:101A2000993110F485E006C0845B883010F486E0BC
:101A300001C087E080934C0120914F0127703091C5
:101A40004E01377080914D0190914C0197704091FB
:101A5000500140935101330F330F330F482F4295FC
:101A6000440F440F407C232B242B2093520182FBF4
:101A7000222720F980915301807F990F822B892B97
:101A80008093530181E080934B0106C180914B010B
:101A9000882309F401C18091050190910601019606
:101AA000909306018093050110924B01F5C080913F
:101AB0000306882309F4ECC080910106811108C057
:101AC000109206011092050181E080930106E4C0A6
:101AD0002091050130910601203981E038070CF092
:101AE000D2C0A901440F551FFA01E20FF31FEF5AAC
:101AF000FE4F80818093500180FF03C091E090935E
:101B0000440681FF03C091E09093430682FF03C027
:101B100091E09093420683FF03C091E090934106C9
:101B200084FF03C091E090933D0685FF03C091E0E0
:101B300090933B0686FF03C091E090933C0687FF9D
:101B400003C081E080934006FA01E20FF31FEE5AD2
:101B5000FE4F8081E82FE7708E2F90E0FC013197D7
:101B6000E730F105A8F4EC5CFF4F0C94EF101092F5
:101B700008060EC085E401C082E58093080608C00F
:101B800080E8FBCF8EEAF9CF8BEBF7CFF092080617
:101B9000FA01E20FF31FEE5AFE4F8081869586957B
:101BA0008695E82FE7708E2F90E0FC013197E730A3
:101BB000F105A8F4E55CFF4F0C94EF1010920706B6
:101BC0000EC085E401C08EE48093070608C080E85B
:101BD000FBCF83EBF9CF8BEBF7CFF0920706DA015F
:101BE000A20FB31FAE5ABE4FEC919E2F92959695C1
:101BF0009695937011968C918170880F880FE82FBD
:101C0000E92B8E2F90E0FC013197E730F105A8F425
:101C1000EE5BFF4F0C94EF10109206060EC085E4A9
:101C200001C082E58093060608C080E8FBCF8EEAFB
:101C3000F9CF8BEBF7CFF0920606240F351FF90191
:101C4000ED5AFE4F80818695E82FE7708E2F90E049
:101C5000FC013197E730F105F8F4E75BFF4F0C9496
:101C6000EF101092050618C085E401C08EE4809341
:101C7000050612C080E8FBCF83EBF9CF8BEBF7CFE3
:101C8000F092050609C0109206011092050104C0E9
:101C90001092020610920106809114019091440660
:101CA00090FB80F99091430690FB81F99091420658
:101CB00090FB82F99091410690FB83F98093140187
:101CC0009091150120913D0620FB94F99093150108
:101CD00090913C0191110AC090913B01911106C075
:101CE0009091400690FB84F9809314018091150136
:101CF000887F877F8093150120910A06253618F486
:101D000080913C0601C081E0819580931B019091F8
:101D10000906953618F480913B0601C081E0819553
:101D200080931A01253618F420913C0601C021E069
:101D30008091150120FB85F980931501953618F4E3
:101D400090913B0601C091E08091150190FB86F9CE
:101D500080931501809108068093160180910706F3
:101D600080931701809106068093180180910506E3
:101D7000809319018091E60690913A0190FB83F9D6
:101D80008093E6068091140185FD35C01FB7F89455
:101D900024E131E04AE051E067E071E08091E30640
:101DA0000E94E302813051F424E131E04AE051E045
:101DB00067E071E08091E3060E94E302823051F413
:101DC00024E131E04AE051E067E071E08091E30610
:101DD0000E94E3021FBF833021F480910901877FB5
:101DE00005C0843031F48091090188608093090135
:101DF00002C0853091F380914506882309F490C094
:101E0000A0904406C0904306E0904206009141062F
:101E10002091400640E060E080E00E94C503A09071
:101E20003E01C0903D01E0903F0600913E062091AA
:101E30003D0640913C0660913B0681E00E94C5034F
:101E4000A0903306C0903406E09035060091360627
:101E500020913706409138066091390680913A0604
:101E60000E94C503A0902B06C0902C06E0902D0682
:101E700000912E0620912F06409130066091310688
:101E8000809132060E94C503A0902306C0902406CC
:101E9000E09025060091260620912706409128060D
:101EA0006091290680912A060E94C503A0901B0616
:101EB000C0901C06E0901D0600911E0620911F0692
:101EC0004091200660912106809122060E94C50360
:101ED000A0901306C0901406E09015060091160617
:101EE00020911706409118066091190680911A06F4
:101EF0000E94C503A0900B06C0900C06E0900D0652
:101F000000910E0620910F06409110066091110677
:101F1000809112060E94C5038AE090E00E943E056F
:101F20000E94AE010C94D106CF93E6E4F6E0138252
:101F3000128288EE93E0A0E0B0E084839583A683CC
:101F4000B78385E291E09183808385EC90E095876B
:101F5000848784EC90E09787868780EC90E0918B73
:101F6000808B81EC90E0938B828B82EC90E0958B60
:101F7000848B86EC90E0978B868B118E128E138E5D
:101F8000148E83E690E00E947610C82F8093FB06A3
:101F900084E690E00E9476108093FA06C093F906DA
:101FA0008093E306CF9108958F929F92AF92BF9254
:101FB000CF92DF92EF92FF92CF93DF93EC01688193
:101FC00079818A819B81611571058105910521F4D3
:101FD00064E279ED8BE597E02DE133EF41E050E0ED
:101FE0000E948C1049015A019B01AC01A7EAB1E49F
:101FF0000E94AB106B017C01ACEEB4EFA501940123
:102000000E94B910DC01CB018C0D9D1DAE1DBF1DC2
:10201000B7FF03C00197A109B04888839983AA83B9
:10202000BB83BC01CD019F77DF91CF91FF90EF90F3
:10203000DF90CF90BF90AF909F908F9008958F9238
:102040009F92AF92BF92CF92DF92EF92FF926091F8
:102050001D0170911E0180911F0190912001611559
:1020600071058105910521F464E279ED8BE597E036
:102070002DE133EF41E050E00E948C1049015A01FC
:102080009B01AC01A7EAB1E40E94AB106B017C019B
:10209000ACEEB4EFA50194010E94B910DC01CB01B4
:1020A0008C0D9D1DAE1DBF1DB7FF03C00197A1097B
:1020B000B04880931D0190931E01A0931F01B0931F
:1020C0002001BC01CD019F77FF90EF90DF90CF9072
:1020D000BF90AF909F908F90089560931D01709373
:1020E0001E0180931F01909320010895F999FECF5E
:1020F00092BD81BDF89A992780B50895262FF99948
:10210000FECF1FBA92BD81BD20BD0FB6F894FA9ADA
:10211000F99A0FBE01960895052E97FB1EF40094C0
:102120000E94A31057FD07D00E94BE1007FC03D0E9
:102130004EF40C94A31050954095309521953F4F47
:102140004F4F5F4F089590958095709561957F4FA3
:102150008F4F9F4F08950E94E010A59F900DB49F50
:10216000900DA49F800D911D11240895B7FF0C942C
:10217000AB100E94AB10821B930B0895A1E21A2EA4
:10218000AA1BBB1BFD010DC0AA1FBB1FEE1FFF1F1B
:10219000A217B307E407F50720F0A21BB30BE40B6B
:1021A000F50B661F771F881F991F1A9469F76095B2
:1021B0007095809590959B01AC01BD01CF0108956C
:1021C000A29FB001B39FC001A39F700D811D112478
:1021D000911DB29F700D811D1124911D0895EE0F68
:1021E000FF1F0590F491E02D099481E090E0F894B0
:0821F0000C94FA10F894FFCFE3
:1021F8001001492323860109000300808080808024
:102208001F1F00000080808080801F1F01010000C8
:1022180000000000003F01A800D6008C010701E57E
:0622280000F9000D0A00A0
:00000001FF
