:100000000C947E000C94A6000C94A6000C94A60000
:100010000C94A6000C94A6000C94A6000C94A600C8
:100020000C94A6000C94A6000C94A6000C947203E9
:100030000C94A6000C94A6000C94A6000C94A600A8
:100040000C9430050C94A6000C9466020C944002AB
:100050000C94A6000C94A6000C94A6000C94A60088
:100060000C94A6000C94A6007B0B7E0B800B840BDB
:10007000860B880B8B0BA30BA60BA80BAC0BAE0B44
:10008000B00BB30BD20BD50BD70BDB0BDD0BDF0BA0
:10009000E20BF80BFB0BFD0B010C030C050C080C21
:1000A00000000000230026002900000000080002D4
:1000B0000100000304070000000000000000000031
:1000C0000000250028002B0000000000240027006D
:1000D0002A000404040404040404020202020202CA
:1000E00003030303030301020408102040800102FC
:1000F00004081020010204081020370D11241FBE2F
:10010000CFEFD8E0DEBFCDBF11E0A0E0B1E0E8E482
:10011000FDE102C005900D92A433B107D9F726E0A6
:10012000A4E3B1E001C01D92A23DB207E1F710E0E7
:10013000CEE7D0E004C02197FE010E94830ECD37A8
:10014000D107C9F70E947A050C94A20E0C94000006
:10015000CF92DF92EF92FF920F931F93CF93DF9393
:100160006C017A018B01C0E0D0E0CE15DF0581F093
:10017000D8016D918D01D601ED91FC910190F08136
:10018000E02DC6010995892B11F02196EECF7E0155
:10019000C701DF91CF911F910F91FF90EF90DF90FA
:1001A000CF900895089580E090E00895FC01538D6C
:1001B000448D252F30E0842F90E0821B930B541741
:1001C00010F0CF96089501970895FC01918D828DCE
:1001D000981761F0828DDF01A80FB11D5D968C919B
:1001E000928D9F5F9F73928F90E008958FEF9FEFA6
:1001F0000895FC01918D828D981731F0828DE80F62
:10020000F11D858D90E008958FEF9FEF0895FC011B
:10021000918D228D892F90E0805C9F4F821B9109E8
:100220008F739927089585E196E00E94070121E0E8
:10023000892B09F420E0822F0895FC01848DDF01D1
:10024000A80FB11DA35ABF4F2C91848D90E0019649
:100250008F739927848FA689B7892C93A089B18938
:100260008C91837080648C93938D848D981306C0D9
:100270000288F389E02D80818F7D80830895EF923D
:10028000FF920F931F93CF93DF93EC0181E0888F50
:100290009B8D8C8D981305C0E889F989808185FD37
:1002A00026C0F62E0B8D10E00F5F1F4F0F73112726
:1002B000E02E8C8DE8120CC00FB607FCFACFE8894F
:1002C000F989808185FFF5CFCE010E941D01F1CF14
:1002D0008B8DFE01E80FF11DE35AFF4FF0829FB7AF
:1002E000F8940B8FEA89FB89808180620AC09FB7EE
:1002F000F894EE89FF896083E889F98980818370A9
:10030000806480839FBF81E090E0DF91CF911F9157
:100310000F91FF90EF900895CF93DF93EC01888DBC
:100320008823C9F0EA89FB89808185FD05C0A889F9
:10033000B9898C9186FD0FC00FB607FCF5CF80817F
:1003400085FFF2CFA889B9898C9185FFEDCFCE01C9
:100350000E941D01E7CFDF91CF91089580E090E0EA
:10036000892B29F00E94130181110C94000008953B
:10037000EF920F931F93F901DA013C912E2D2095F6
:1003800032233C9330813E293083FC01D80198E030
:1003900080E030E020E04C914E2189F02A95D9F799
:1003A00020E04C914E2159F02A95D9F720E84C9144
:1003B0004E2129F02A95D9F73A9561F717C047E001
:1003C0004A95F1F7000031E0550F4C914E2109F0AC
:1003D00051609A9529F45193839598E0681731F00C
:1003E00020E84C914E2111F72A95D9F71F910F91D2
:1003F000EF9008950F931F93F9012081202B208304
:10040000DA012C91202B2C9320814081202B30E08D
:1004100010E00095109550E004231523DC015D9158
:1004200048E00083550F40F474E07A95F1F720839B
:100430007AE07A95F1F705C07EE07A95F1F7000051
:1004400020834A9529F073E07A95F1F70000E9CF0F
:100450006A9529F071E07A95F1F70000E0CF72E03B
:100460007A95F1F700000000008374E07A95F1F7C7
:100470000000000020831F910F9108950E949D0E9F
:100480001F920F920FB60F9211242F933F934F9309
:100490005F936F937F938F939F93AF93BF93EF93EC
:1004A000FF9385E196E00E941D01FF91EF91BF91BE
:1004B000AF919F918F917F916F915F914F913F91FC
:1004C0002F910F900FBE0F901F9018951F920F92B3
:1004D0000FB60F9211242F938F939F93EF93FF9357
:1004E000E0912506F09126068081E0912B06F0919F
:1004F0002C0682FD12C0908180912E068F5F8F7333
:1005000020912F06821751F0E0912E06F0E0EB5E6D
:10051000F94F958F80932E0601C08081FF91EF9156
:100520009F918F912F910F900FBE0F901F90189554
:100530007F928F929F92AF92BF92CF92DF92EF9273
:10054000FF920F931F93CF93DF93DB01642F590129
:10055000F02E282F30E0F901EA51FF4FE490F90125
:10056000EE52FF4F249130E0220F331FF901E85380
:10057000FF4FC591D491F901E254FF4FC590D4903B
:10058000F901E056FF4F859094907FB6F8940E2DB8
:100590009601AE01CD010E94FA0184019601AE01DF
:1005A0006F2DC5010E94B8017FBEDF91CF911F91D1
:1005B0000F91FF90EF90DF90CF90BF90AF909F9002
:1005C0008F907F9008953F924F925F926F927F92AB
:1005D0008F929F92AF92BF92CF92DF92EF92FF9253
:1005E0000F931F93CF93DF9300D01F92CDB7DEB749
:1005F0003B014A01290190E0FC01EA51FF4FF490D0
:10060000FC01EE52FF4F849190E0880F991FFC018E
:10061000E853FF4FC590D490FC01E254FF4FA590E2
:10062000B490FC01E056FF4F059114913FB6F89449
:1006300019821A821B82EF2C9501A60163E0CE017C
:1006400001960E94B8018130B9F48981811109C0F5
:100650000F2D9501A60163E0C3010E94FA0181E01C
:100660002BC0813411F50F2D9501A6016AE0C4015C
:100670000E94FA0182E020C08330B9F4898180347D
:10068000A1F48A81833089F40F2D9501A60168E0D9
:10069000C2010E94FA018B818370813041F0823067
:1006A00041F0833041F486E007C080E005C084E07B
:1006B00003C085E001C083E03FBE0F900F900F9014
:1006C000DF91CF911F910F91FF90EF90DF90CF902E
:1006D000BF90AF909F908F907F906F905F904F9062
:1006E0003F9008951F920F920FB60F9211242F93EF
:1006F0008F939F939091370181E0892780933701F1
:1007000080913A0190913B01813921E092072CF4CC
:10071000019690933B0180933A018091380190912A
:100720003901843291052CF401969093390180931C
:10073000380180910101909102018B3591052CF4D3
:10074000019690930201809301019F918F912F91C7
:100750000F900FBE0F901F90189580910001882375
:1007600079F080913501811104C080913601882390
:1007700039F01092020110920101109200010895C7
:1007800080910101909102019C012A503109293088
:100790003105A0F420913E01222321F02091340163
:1007A000222341F020913D01222341F02091340188
:1007B000222321F081E080933C0108959C012C517B
:1007C00031092930310580F420913E01223020F09A
:1007D00020913401222371F320913D01223020F039
:1007E000209134012111E6CF9C012E52310929308C
:1007F000310580F420913E01233020F02091340116
:100800002223C1F220913D01233020F020913401B8
:100810002111D0CF9C01205431092930310580F4B9
:1008200020913E01243020F020913401222311F246
:1008300020913D01243020F0209134012111BACFC4
:1008400082559109099788F480913E01853028F0FE
:1008500080913401882309F4ADCF80913D0185302A
:1008600020F0809134018111A5CF10923C010895B0
:10087000009769F0FC0101900020E9F73197AF0182
:10088000481B590BBC0185E196E00C94A80080E060
:1008900090E008958F929F92AF92BF920F931F9313
:1008A000CF93DF93CDB7DEB7A1970FB6F894DEBF35
:1008B0000FBECDBF19A2423008F44AE08E010F5D91
:1008C0001F4F842E912CA12CB12CA50194010E94C4
:1008D0003E0EE62FB901CA0101501109EA3014F4A5
:1008E000E05D01C0E95CD801EC93232B242B252B80
:1008F00061F7C8010E943804A1960FB6F894DEBFD4
:100900000FBECDBFDF91CF911F910F91BF90AF90E0
:100910009F908F900895CF92DF92EF92FF92CF93A6
:10092000DF936C01990FEE08FF08F7FE19C06DE226
:1009300085E196E00E943F01EC0166277727CB0115
:100940006C197D098E099F094AE00E944A048C0FA8
:100950009D1FDF91CF91FF90EF90DF90CF90089592
:100960004AE0C701B601DF91CF91FF90EF90DF9091
:10097000CF900C944A0482E391E00C943804CF9316
:10098000DF9390E0FC01EA51FF4F2491FC01EE520D
:10099000FF4F84918823C1F090E0880F991FFC01DC
:1009A000E853FF4FC591D491FC01E254FF4FA5914C
:1009B000B4919FB7F8948881322F30958323888330
:1009C000EC91E22BEC939FBFDF91CF91089590E0E3
:1009D000FC01E655FF4F2491FC01EA51FF4F349191
:1009E000FC01EE52FF4FE491EE23B9F1222339F1DD
:1009F000233091F038F42130A9F0223001F584B58C
:100A00008F7D12C0273091F02830A1F02430B9F446
:100A1000809180008F7D03C0809180008F778093CC
:100A200080000DC084B58F7784BD09C08091B0006F
:100A30008F7703C08091B0008F7D8093B000F0E08D
:100A4000EE0FFF1FE056FF4FA591B491EC91E32309
:100A500081E090E021F480E0089580E090E0089546
:100A60001F920F920FB60F9211242F933F938F93E3
:100A70009F93AF93BF938091CE069091CF06A091A4
:100A8000D006B091D1063091CD0623E0230F2D374B
:100A900020F40196A11DB11D05C026E8230F029682
:100AA000A11DB11D2093CD068093CE069093CF0655
:100AB000A093D006B093D1068091C9069091CA0642
:100AC000A091CB06B091CC060196A11DB11D8093DB
:100AD000C9069093CA06A093CB06B093CC06BF91EB
:100AE000AF919F918F913F912F910F900FBE0F90DB
:100AF0001F901895CF93DF93CDB7DEB7A0970FB6B1
:100B0000F894DEBF0FBECDBF789484B5826084BDFB
:100B100084B5816084BD85B5826085BD85B5816001
:100B200085BD80916E00816080936E00109281007F
:100B3000809181008260809381008091810081603A
:100B400080938100809180008160809380008091FB
:100B5000B10084608093B1008091B0008160809387
:100B6000B00080917A00846080937A0080917A004E
:100B7000826080937A0080917A00816080937A000D
:100B800080917A00806880937A001092C100109260
:100B9000130610921206E0912506F091260682E0D7
:100BA0008083E0912106F09122061082E0912306D5
:100BB000F091240680E1808310922D06E0912906B1
:100BC000F0912A0686E08083E0912706F0912806BE
:100BD000808180618083E0912706F09128068081E2
:100BE00088608083E0912706F091280680818068E4
:100BF0008083E0912706F091280680818F7D808395
:100C0000F89410928000109281001092850010924A
:100C1000840082E194E09093890080938800809121
:100C2000810088608093810080918100846080933E
:100C3000810080916F00826080936F00789484E0DF
:100C40000E94BF0485E00E94BF04FF24FA946BEB6E
:100C5000E62E812C912C540193948091B3069091AF
:100C6000B406892BC1F09091B50693FB992790F9B2
:100C70008091C80620E4298B23E02A8B9B8B08E017
:100C800020EC36E043E0BE016F5E7F4F0E94980289
:100C90008830F9F022C08091C806198A03E023EB5E
:100CA00036E041E0BE016F5E7F4F0E9498028330C4
:100CB000A1F48091C80641E4498B0AE026EB36E0B6
:100CC00041E0BE016F5E7F4F0E9498028A3059F268
:100CD0000AC08091C00685FF06C01092B30610922C
:100CE000B4061092B5068091B50688A388E0E0ECC2
:100CF000F6E0DE01119601900D928A95E1F788E009
:100D0000FE013196DE01199601900D928A95E1F768
:100D100088E0FE013996DE01519601900D928A9588
:100D2000E1F70A8500FB222420F806950170CB84A8
:100D3000DC849D85998F2E852A8F4F8458888989D8
:100D4000482F41704B8F4093110691E0282F22705D
:100D50002C8F81FF90E09093100691E0482F447013
:100D60004D8F82FF90E090930F0691E0282F28701E
:100D70002E8F83FF90E090930E061A8920FA10F9C7
:100D800000FB11F91A8B91E0412F40714F8F14FF36
:100D900090E090930D0691E0282F2071622E84FF41
:100DA00090E09093060681E0412F4870742E13FF67
:100DB00080E08093400184E00E94E70421E030E07D
:100DC000892B11F020E030E0C901820D911D1C013A
:100DD00081E02114310409F480E08093360185E03C
:100DE0000E94E70421E030E0892B11F020E030E0A0
:100DF000C901800F911D21E0009709F420E02093A4
:100E0000350121E0312F347012FF20E020934201A0
:100E100016FB222720F920930C0615FB222720F928
:100E200020930B064092040650920506C0920A06D3
:100E3000D0920906298D209308064A8D4093070613
:100E400048A143FB222720F920933C012B8D21113F
:100E50002CC04C8D411129C02D8D211126C04E8DE5
:100E6000411123C02F8D211120C061101EC07110AF
:100E70001CC021143104C9F40097B9F41476A9F404
:100E80004BE6441590F0451580F029E92C0D2333ED
:100E900060F429E92D0D233340F4298D275623339F
:100EA00020F42A8D2756233318F01092480113C0DE
:100EB0002091050123FF0FC02091480121110BC093
:100EC00020913E01211104C020913D01222319F0FF
:100ED00021E02093480120911801222371F033234F
:100EE00021F021E02093140608C0662021F021E0C3
:100EF0002093470102C0109218012091140621117D
:100F000093C42328E1F020914401211118C080915D
:100F10003E018F5F80933E01833029F4C0924601E9
:100F2000D09245013EC0843019F40E94B50D39C0FD
:100F30008530B9F108F498C510923E0132C0892B72
:100F400079F08091430181110BC080913D018F5F49
:100F5000853018F480933D0124C010923D0121C0DA
:100F6000332389F08091410181110DC080910206E7
:100F7000813019F41092020603C081E080930206CA
:100F8000109201060EC0772061F080913F0181111F
:100F900008C0109202069091010681E08927809393
:100FA000010610913601112321F08091440188231C
:100FB00059F080910101909102018B35910544F423
:100FC00080913401811104C0109234010E94AD035C
:100FD00000913501002321F080914301882359F0CD
:100FE00080910101909102018B3591054CF4809123
:100FF0003401882329F081E0809334010E94AD03FD
:10100000011105C0111103C081E08093000110930C
:1010100044010093430180914201809341018091FA
:10102000400180933F0180913D01843009F443C029
:1010300080913E01813091F480914801811104C07A
:10104000809147018823B9F180913701882319F0F5
:1010500010920A0630C0F0920A062DC08230C9F400
:1010600080914801811104C080914701882319F1C2
:101070000E94B50DA50194010E940C0E60930A0612
:101080000E94B50DA50194010E940C0E6093090603
:1010900012C0833081F480914801811104C0809195
:1010A0004701882341F08091460180930A06809190
:1010B00045018093090680913D01813071F4809152
:1010C0004801811105C080914701882309F455C06A
:1010D0008091370180930C0650C0823071F480916A
:1010E0004801811105C080914701882309F445C05A
:1010F0008091370180930E0640C08330A9F480911F
:101100004801811104C0809147018823B1F180E832
:1011100080930A061092090680913701882369F1AD
:1011200081E08093100629C0843029F58091030660
:10113000811108C0109239011092380181E080932A
:1011400003061BC08091380190913901059734F452
:1011500081E080930C06F092040609C081E0809340
:101160000C06F0920406809137018093100681EB03
:101170008093090602C01092030680910206813016
:1011800009F038C19091000691110BC010923B01FB
:1011900010923A018093000620914E0180E090E089
:1011A00014C180911106882329F080914E0181603D
:1011B00080934E0180911006882329F080914E0182
:1011C000826080934E0180910F06882329F08091E0
:1011D0004E01846080934E0180910E06882329F091
:1011E00080914E01886080934E0180910D06882386
:1011F00029F080914E01806180934E0180910C0610
:10120000882329F080914E01806280934E01809165
:101210000B06882329F080914E01806480934E0153
:1012200080910606882329F080914E018068809382
:101230004E0180910806853410F491E023C090910E
:101240000A062BEB290F2D3010F492E01BC02EEA7A
:10125000290F243110F493E015C02AE9290F253312
:1012600010F494E00FC025E6290F243110F495E026
:1012700009C021E5290F2D3010F496E003C09C3BF6
:1012800018F097E090934D0190910906953410F471
:1012900091E01EC02BEB290F293010F492E018C00A
:1012A00022EB290F283110F493E012C02AE9290F0C
:1012B000253310F494E00CC025E6290F293110F4F1
:1012C00095E006C0945B983010F496E001C097E07A
:1012D00090934C01853410F481E01EC09BEB980F75
:1012E0009D3010F482E018C09EEA980F943110F4FB
:1012F00083E012C09AE9980F953310F484E00CC093
:1013000095E6980F943110F485E006C08F5A8D3021
:1013100010F486E001C087E080934B0180910706BE
:10132000853410F481E01EC09BEB980F993010F4C7
:1013300082E018C092EB980F983110F483E012C04D
:101340009AE9980F953310F484E00CC095E6980F55
:10135000993110F485E006C0845B883010F486E093
:1013600001C087E080934A0160913A0170913B018E
:1013700030914D01377040914C01477090914B0175
:1013800020914A012770FB01EE0FFF1FE60FF71FA8
:10139000DF01A15BBE4F80914E018C93E05BFE4F5D
:1013A000440F440F440F892F8295880F880F807C4B
:1013B000342B382B308392FB992790F98181807FE1
:1013C000220F892B822B8183E7CE41E050E060E041
:1013D00070E0082E04C0440F551F661F771F0A9443
:1013E000D2F74095242301968830910571F7209318
:1013F0004E011AC2823009F01EC180910D06882369
:1014000009F408C180911106882329F080914E01CA
:10141000816080934E0180911006882329F080918D
:101420004E01826080934E0180910F06882329F03F
:1014300080914E01846080934E0180910E06882336
:1014400029F080914E01886080934E0180914E0179
:10145000982F906190934E0190910C06992319F06A
:10146000806380934E0180910B06882329F0809140
:101470004E01806480934E0180910606882329F0F6
:1014800080914E01806880934E01809108068534DA
:1014900010F491E023C090910A062BEB290F2D3018
:1014A00010F492E01BC02EEA290F243110F493E0CF
:1014B00015C02AE9290F253310F494E00FC025E662
:1014C000290F243110F495E009C021E5290F2D30B2
:1014D00010F496E003C09C3B18F097E090934D0108
:1014E00090910906953410F491E01EC02BEB290F62
:1014F000293010F492E018C022EB290F283110F4A3
:1015000093E012C02AE9290F253310F494E00CC0AF
:1015100025E6290F293110F495E006C0945B983038
:1015200010F496E001C097E090934C01853410F4DC
:1015300081E01EC09BEB980F9D3010F482E018C034
:101540009EEA980F943110F483E012C09AE9980F44
:10155000953310F484E00CC095E6980F943110F4A4
:1015600085E006C08F5A8D3010F486E001C087E018
:1015700080934B0180910706853410F481E01EC0F2
:101580009BEB980F993010F482E018C092EB980F03
:10159000983110F483E012C09AE9980F953310F453
:1015A00084E00CC095E6980F993110F485E006C0F0
:1015B000845B883010F486E001C087E080934A01A4
:1015C00020914D01277030914C01377080914B0173
:1015D00090914A01977040914E0140934F01330F13
:1015E000330F330F482F4295440F440F407C232B79
:1015F000242B2093500182FB222720F98091510156
:10160000807F990F822B892B8093510181E08093F9
:1016100049010AC180914901882309F405C18091DB
:101620003A0190913B01019690933B0180933A01DE
:1016300010924901F9C080910106882309F4F0C095
:101640008091FF05811108C010923B0110923A0170
:1016500081E08093FF05E8C080913A0190913B01C1
:10166000803921E092070CF0D6C09C01220F331F75
:10167000F901E80FF91FE15BFE4F408140934E01F5
:1016800040FF03C051E05093110641FF03C051E0F9
:101690005093100642FF03C051E050930F0643FFE2
:1016A00003C051E050930E0644FF03C051E0509335
:1016B0000D0645FF03C051E050930C0646FF03C0E2
:1016C00051E050930B0647FF03C041E040930606EC
:1016D000F901E80FF91FE05BFE4F4081E42FE7704E
:1016E0004E2F50E0FA013197E730F105B0F4EC5C91
:1016F000FF4F0C94830E10920A060FC045E401C000
:1017000042E540930A0609C040E8FBCF4EEAF9CF14
:10171000E0920A0602C0F0920A06F901E80FF91FEA
:10172000E05BFE4F4081469546954695E42FE77075
:101730004E2F50E0FA013197E730F105B0F4E55C47
:10174000FF4F0C94830E109209060FC045E401C0B0
:101750004EE44093090609C040E8FBCF43EBF9CFC4
:10176000E092090602C0F0920906D901A80FB91F3C
:10177000A05BBE4FEC915E2F5295569556955370D7
:1017800011964C914170440F440FE42FE52B4E2FDE
:1017900050E0FA013197E730F105B0F4EE5BFF4F0E
:1017A0000C94830E109208060FC045E401C042E578
:1017B0004093080609C040E8FBCF4EEAF9CFE0921B
:1017C000080602C0F0920806820F931FFC01EF5A30
:1017D000FE4F80818695E82FE7708E2F90E0FC0108
:1017E0003197E730F10500F5E75BFF4F0C94830E6E
:1017F0001092070619C085E401C08EE480930706A5
:1018000013C080E8FBCF83EBF9CFE09207060CC052
:10181000F092070609C010923B0110923A0104C0F1
:10182000109200061092FF05809110019091110610
:1018300090FB80F99091100690FB81F990910F0632
:1018400090FB82F990910E0690FB83F98093100132
:101850009091110120910D0620FB94F990931101B4
:1018600090913E0191110AC090913D01911106C0E5
:101870009091060690FB84F98093100180911101EC
:10188000887F877F8093110120910506253618F403
:1018900080910B0601C081E08195809317019091A2
:1018A0000406953618F480910C0601C081E08195FC
:1018B00080931601253618F420910B0601C021E013
:1018C0008091110120FB85F980931101953618F460
:1018D00090910C0601C091E08091110190FB86F976
:1018E0008093110180910A0680931201809109066C
:1018F000809313018091080680931401809107065C
:10190000809315018091B50690913C0190FB83F97D
:101910008093B5068091100185FD35C01FB7F894FE
:1019200020E131E046E051E063E071E08091B206F1
:101930000E94E302813051F420E131E046E051E0C1
:1019400063E071E08091B2060E94E302823051F4BC
:1019500020E131E046E051E063E071E08091B206C1
:101960000E94E3021FBF833021F480910501877F2D
:1019700005C0843031F480910501886080930501B1
:1019800002C0853091F32091120630911306C901EF
:1019900065E070E00E946F0E892B09F05CC08091B9
:1019A000110690E00E948B040E94BB0480911006F7
:1019B00090E00E948B040E94BB0480910F0690E08F
:1019C0000E948B040E94BB0480910E0690E00E944E
:1019D0008B040E94BB0480910D0690E00E948B0452
:1019E0000E94BB0480910C0690E00E948B040E9430
:1019F000BB0480910B0690E00E948B040E94BB0404
:101A000060910A0670E080E090E04AE00E944A049B
:101A10000E94BB046091090670E080E090E04AE01B
:101A20000E944A040E94BB046091080670E080E0B6
:101A300090E04AE00E944A040E94BB0460910706BD
:101A400070E080E090E04AE00E944A048FE291E07A
:101A50000E94380406C02F5F3F4F30931306209337
:101A600012060E94AE01F9C8109136019ECAE5E146
:101A7000F6E01382128288EE93E0A0E0B0E0848367
:101A80009583A683B78381E291E09183808385EC7F
:101A900090E09587848784EC90E09787868780EC38
:101AA00090E0918B808B81EC90E0938B828B82EC29
:101AB00090E0958B848B86EC90E0978B868B118ED3
:101AC000128E138E148E83E08093C80682E080937A
:101AD000B20608958F929F92AF92BF92CF92DF92FB
:101AE000EF92FF92CF93DF93EC01688179818A8135
:101AF0009B81611571058105910521F464E279ED01
:101B00008BE597E02DE133EF41E050E00E940C0EB1
:101B100049015A019B01AC01A7EAB1E40E942B0ED6
:101B20006B017C01ACEEB4EFA50194010E94390E6B
:101B3000DC01CB018C0D9D1DAE1DBF1DB7FF03C089
:101B40000197A109B04888839983AA83BB83BC010C
:101B5000CD019F77DF91CF91FF90EF90DF90CF90F5
:101B6000BF90AF909F908F9008958F929F92AF9269
:101B7000BF92CF92DF92EF92FF9260911901709124
:101B80001A0180911B0190911C016115710581055D
:101B9000910521F464E279ED8BE597E02DE133EFD7
:101BA00041E050E00E940C0E49015A019B01AC013A
:101BB000A7EAB1E40E942B0E6B017C01ACEEB4EFFE
:101BC000A50194010E94390EDC01CB018C0D9D1DF5
:101BD000AE1DBF1DB7FF03C00197A109B048809398
:101BE000190190931A01A0931B01B0931C01BC0131
:101BF000CD019F77FF90EF90DF90CF90BF90AF9097
:101C00009F908F9008956093190170931A018093AB
:101C10001B0190931C010895052E97FB1EF4009460
:101C20000E94230E57FD07D00E943E0E07FC03D0F2
:101C30004EF40C94230E50954095309521953F4FCE
:101C40004F4F5F4F089590958095709561957F4FA8
:101C50008F4F9F4F08950E94600EA59F900DB49FD7
:101C6000900DA49F800D911D11240895B7FF0C9431
:101C70002B0E0E942B0E821B930B0895A1E21A2EAD
:101C8000AA1BBB1BFD010DC0AA1FBB1FEE1FFF1F20
:101C9000A217B307E407F50720F0A21BB30BE40B70
:101CA000F50B661F771F881F991F1A9469F76095B7
:101CB0007095809590959B01AC01BD01CF01089571
:101CC000A29FB001B39FC001A39F700D811D11247D
:101CD000911DB29F700D811D1124911D089597FBD8
:101CE000072E16F4009407D077FD09D00E94890EC4
:101CF00007FC05D03EF4909581959F4F089570950F
:101D000061957F4F0895EE0FFF1F0590F491E02D30
:101D10000994AA1BBB1B51E107C0AA1FBB1FA61732
:101D2000B70710F0A61BB70B881F991F5A95A9F784
:101D300080959095BC01CD01089581E090E0F894E4
:081D40000C94A20EF894FFCFF1
:101D48000149000900030080808080801F1F000077
:101D58000080808080801F1F0101000000000000BB
:101D6800003F01A800D6008C010701E500F9000D2D
:041D78000A002C0031
:00000001FF
